:100000000C9438000C94BA010C94E0010C94060294
:100010000C9455000C9455000C9455000C9455000C
:100020000C9455000C9455000C9455000C945500FC
:100030000C9455000C9455000C9455000C945500EC
:100040000C9455000C9455000C9455000C945500DC
:100050000C9455000C9455000C9455000C945500CC
:100060000C9455000C9455000C9455000C945500BC
:1000700011241FBECFEFD4E0DEBFCDBF11E0A0E062
:10008000B1E0E2E7FEE002C005900D92AA3DB107A3
:10009000D9F721E0AAEDB1E001C01D92A63EB2075A
:1000A000E1F70E944D010C9437070C94000081B3D6
:1000B000806281BB8EB580618EBD8EB588608EBD3D
:1000C0008FB582608FBD8FB581608FBD8FB58F7703
:1000D0008FBD8FB580648FBD8FB58F7D8FBD8FB580
:1000E0008F7E8FBD8EB58B7F8EBD8EB58D7F8EBD85
:1000F0008EB581608EBD8FB5877F8FBD8FB58B7FAD
:100100008FBD0895CF93DF9300D000D0CDB7DEB779
:1001100019821A821B821C821092001491E39A9514
:10012000F1F7000020E030E00CC0F901FC5E9081A6
:10013000E1E0F0E0EC0FFD1FE20FF31F90832F5F73
:100140003F4F2430310588F3E1E0F0E0EC0FFD1F74
:10015000E80FF11D80810F900F900F900F90DF91AD
:10016000CF91089583E00E9482008093DB0182E0BA
:100170000E9482008093DA011F928F938091DB01AD
:100180001F928F9386E091E09F938F930E94E502E8
:100190000F900F900F900F900F900F90089586176B
:1001A000A0F0462F50E0282F30E0241B350B64E6EA
:1001B000629FC001639F900D11246FEF70E0641B7C
:1001C000750B0E947202862F089570E0282F30E090
:1001D000261B370B44E6429FC001439F900D11241C
:1001E0000E947202862F0895CF93DF93C091DB01A6
:1001F00083E00E9482006C2F0E94CF00C82FD09114
:10020000DA0182E00E9482006D2F0E94CF00982FB9
:100210008C2FDF91CF910895282F8B5F8B3048F47E
:10022000892F9B5F9B30D8F08630DCF48530DCF082
:1002300015C026304CF0892F9B5F9B30B0F0863084
:10024000B4F48530B4F00AC0253044F4892F9B5FA4
:100250009B3088F086308CF485308CF0089584E0F3
:10026000089582E0089583E0089581E0089585E08F
:10027000089587E0089580E0089586E0089588E075
:1002800008950E94820024E6829FC00111246FEF2E
:1002900070E00E947202862F08958FE190E00E9424
:1002A00065020E9456020E9457000E942C020E9482
:1002B000B20083E291E00E94FB028C2F9D2F0E94EE
:1002C000F400C82FD92F0E940C01D82E80E090E0B6
:1002D0000E9441017C0181E090E00E9441018C017B
:1002E0008C2F0C2E000C990B9F93CF9387E491E0F9
:1002F0009F938F930E94E5028D2F0D2E000C990B7A
:100300009F93DF938FE491E09F938F930E94E50288
:100310001F92DF9287E591E09F938F930E94E50201
:10032000C70199279F938F9380E791E09F938F93C5
:100330000E94E502C80199279F938F9382E891E07C
:100340009F938F930E94E50283E291E00E94FB025B
:100350002FEF8FE791E0215080409040E1F700C0FF
:1003600000C08DB79EB744960FB6F8949EBF0FBEDF
:100370008DBF9FCF1F920F920FB60F9211242F9314
:100380003F934F935F936F937F938F939F93AF931D
:10039000BF93EF93FF9385E991E00E94FB02FF91E9
:1003A000EF91BF91AF919F918F917F916F915F91ED
:1003B0004F913F912F910F900FBE0F901F90189566
:1003C0001F920F920FB60F9211242F933F934F93CA
:1003D0005F936F937F938F939F93AF93BF93EF93AD
:1003E000FF938AEA91E00E94FB02FF91EF91BF9197
:1003F000AF919F918F917F916F915F914F913F91BD
:100400002F910F900FBE0F901F9018951F920F9273
:100410000FB60F9211242F933F934F935F936F93D7
:100420007F938F939F93AF93BF93EF93FF9380EC52
:1004300091E00E94FB02FF91EF91BF91AF919F91DC
:100440008F917F916F915F914F913F912F910F907D
:100450000FBE0F901F90189581B38B7F81BB81B326
:10046000877F81BB86B18E7F86B9F8948BB7806415
:100470008BBF8BB780688BBF85B7886085BF85B71A
:10048000846085BF85B7826085BF85B7816085BF81
:100490008BB78E7F8BBF86B78E7F86BF8AB7806211
:1004A0008ABF8BB780628BBF7894089585B78068C8
:1004B00085BF80B7806280BF08955D9BFECF8CB9F9
:1004C00008955F9BFECF8CB1089590BD89B988E1F6
:1004D0008AB98EE880BD61E672E08DE592E00E9407
:1004E0009A02089597FB072E16F4009407D077FD23
:1004F00009D00E94860207FC05D03EF490958195B4
:100500009F4F0895709561957F4F0895AA1BBB1B5F
:1005100051E107C0AA1FBB1FA617B70710F0A61B03
:10052000B70B881F991F5A95A9F780959095BC0124
:10053000CD0108950F931F93CF93DF93009731F46C
:100540006115710519F480E090E03AC08B01EC016F
:100550006EE070E081E090E00E940C05FC01892BC8
:1005600091F380E883830115110571F013870287E9
:1005700081E883838091DC019091DD01892B21F456
:10058000F093DD01E093DC012097C9F0D187C087AB
:100590008381826083838091DE019091DF01892BCA
:1005A00071F4F093DF01E093DE018091E00190911E
:1005B000E101892B21F4F093E101E093E001CF0107
:1005C000DF91CF911F910F910895A0E0B0E0EBEE85
:1005D000F2E00C941007AE014B5F5F4FFA0161919E
:1005E0007191AF018091DE019091DF010E942B0398
:1005F000E2E00C942C070F931F93CF93DF93E091CD
:10060000DE01F091DF01238121FF1BC08C01D0E0CE
:10061000C0E0F80181918F016091DE017091DF01EE
:10062000DB011896ED91FC911997882331F009951B
:10063000892B79F3DFEFCFEFECCF8AE00995892B97
:1006400019F08FEF9FEF02C08D2F9C2FDF91CF917C
:100650001F910F910895ABE0B0E0E1E3F3E00C945B
:1006600000076C017B018A01FC01178216828381DD
:1006700081FFCCC1CE0101963C01F6019381F701C7
:1006800093FD859193FF81917F01882309F4BAC17D
:10069000853239F493FD859193FF81917F018532F5
:1006A00029F4B60190E00E946606E7CF912C212C38
:1006B000312CFFE1F315D8F08B3279F038F4803229
:1006C00079F08332A1F4232D20611DC08D3261F0B9
:1006D000803369F4232D216016C0832D8260382E6B
:1006E000E32DE4603E2E2AC0F32DF8601DC037FCD8
:1006F0002DC020ED280F2A3040F08E32B9F436FCA0
:1007000081C1232D2064322E19C036FE06C08AE036
:10071000989E200D1124922E11C0EAE02E9E200DED
:100720001124222EF32DF0623F2E08C08C3621F4C6
:10073000832D8068382E02C0883641F4F70193FD7E
:10074000859193FF81917F018111B3CF982F9F7D78
:100750009554933028F40C5F1F4F9FE399830DC08D
:10076000833631F0833771F0833509F059C021C0E9
:10077000F801808189830E5F1F4F88248394912C18
:10078000530113C02801F2E04F0E511CF801A08064
:10079000B18036FE03C0692D70E002C06FEF7FEFBD
:1007A000C5010E945B064C018201F32DFF773F2EAD
:1007B00016C0280122E0420E511CF801A080B18031
:1007C00036FE03C0692D70E002C06FEF7FEFC501F8
:1007D0000E9449064C01F32DF0683F2E820133FC44
:1007E0001BC0822D90E088169906B0F4B60180E215
:1007F00090E00E9466062A94F4CFF50137FC8591BB
:1008000037FE81915F01B60190E00E9466062110DB
:100810002A9421E0821A91088114910471F7E8C0AA
:10082000843611F0893641F5F80137FE07C0608142
:100830007181828193810C5F1F4F08C0608171813B
:10084000072E000C880B990B0E5F1F4FF32DFF76C0
:100850003F2E97FF09C090958095709561957F4FC9
:100860008F4F9F4FF0683F2E2AE030E0A3010E9497
:10087000A206882E861845C0853731F4232D2F7E99
:10088000B22E2AE030E025C0932D997FB92E8F3605
:10089000C1F018F4883579F0B5C0803719F0883781
:1008A00021F0B0C0E92FE061BE2EB4FE0DC0FB2DDB
:1008B000F460BF2E09C034FE0AC0292F2660B22E74
:1008C00006C028E030E005C020E130E002C020E1B1
:1008D00032E0F801B7FE07C06081718182819381A7
:1008E0000C5F1F4F06C06081718180E090E00E5F59
:1008F0001F4FA3010E94A206882E8618FB2DFF77AA
:100900003F2E36FE0DC0232D2E7FA22E891458F4C3
:1009100034FE0BC032FC09C0832D8E7EA82E05C08C
:10092000B82CA32C03C0B82C01C0B92CA4FE0FC056
:10093000FE01E80DF11D8081803321F49A2D997E0E
:10094000A92E09C0A2FE06C0B394B39404C08A2D98
:10095000867809F0B394A3FC11C0A0FE06C0B214BF
:1009600088F4280C922C9B180EC0B21460F4B601C7
:1009700080E290E00E946606B394F7CFB21418F4B8
:100980002B1802C0982C212CA4FE10C0B60180E3C5
:1009900090E00E946606A2FE17C0A1FC03C088E793
:1009A00090E002C088E590E0B6010CC08A2D867800
:1009B00059F0A1FE02C08BE201C080E2A7FC8DE2EB
:1009C000B60190E00E946606891438F4B60180E30F
:1009D00090E00E9466069A94F7CF8A94F301E80D9E
:1009E000F11D8081B60190E00E9466068110F5CF6E
:1009F000222009F442CEB60180E290E00E94660611
:100A00002A94F6CFF6018681978102C08FEF9FEF7F
:100A10002B96E2E10C941C070F931F93CF93DF9367
:100A2000869F8001879F100D969F100D1124C8018D
:100A30000E942805EC01009729F0A80160E070E011
:100A40000E945406CE01DF91CF911F910F9108951E
:100A50000F931F93CF93DF938230910510F482E0C0
:100A600090E0E091E401F091E50120E030E0A0E0C9
:100A7000B0E0309719F1408151810281138148170C
:100A80005907C8F08417950769F4109731F012964A
:100A90000C93129713961C9327C00093E4011093B4
:100AA000E50122C02115310519F04217530718F44A
:100AB0009A01BD01EF01DF01F801DBCF21153105FE
:100AC000F9F0281B390B2430310580F48A819B8191
:100AD0006115710521F0FB019383828304C090931B
:100AE000E5018093E401FE01329644C0FE01E20F6D
:100AF000F31F8193919322503109398328833AC09F
:100B00002091E2013091E301232B41F42091020175
:100B1000309103013093E3012093E2012091000121
:100B2000309101012115310541F42DB73EB74091B7
:100B3000040150910501241B350BE091E201F09175
:100B4000E301E217F307A0F42E1B3F0B2817390728
:100B500078F0AC014E5F5F4F2417350748F04E0F19
:100B60005F1F5093E3014093E2018193919302C090
:100B7000E0E0F0E0CF01DF91CF911F910F91089558
:100B8000CF93DF93009709F481C0FC013297138261
:100B90001282A091E401B091E501109781F42081C7
:100BA0003181820F931F2091E2013091E3012817D8
:100BB000390751F5F093E301E093E20167C0ED01DD
:100BC00020E030E0CE17DF0740F44A815B819E01D0
:100BD00041155105F1F0EA01F5CFD383C28340817D
:100BE0005181840F951FC817D90759F488819981BD
:100BF000840F951F0296918380838A819B819383C2
:100C000082832115310529F4F093E501E093E40195
:100C10003DC0E901FB83EA8349915991C40FD51F77
:100C2000EC17FD0761F480819181840F951F029676
:100C3000E90199838883828193819B838A83E0E0A1
:100C4000F0E012968D919C911397009719F0FD0199
:100C5000DC01F7CF8D919C9111979D012E5F3F4F45
:100C6000820F931F2091E2013091E3012817390789
:100C700069F4309729F41092E5011092E40102C062
:100C800013821282B093E301A093E201DF91CF912E
:100C90000895FC010590615070400110D8F78095CF
:100CA00090958E0F9F1F0895DC0101C06D934150F8
:100CB0005040E0F70895FC01615070400190011030
:100CC000D8F7809590958E0F9F1F08950F931F93CF
:100CD000CF93DF93FB01238121FD03C08FEF9FEFB3
:100CE0002CC022FF16C046815781248135814217CE
:100CF000530744F4A081B1819D012F5F3F4F3183A1
:100D000020838C93268137812F5F3F4F3783268343
:100D100014C08B01EC01FB010084F185E02D0995E5
:100D2000892BE1F6D80116968D919C911797019623
:100D300017969C938E931697CE01DF91CF911F91BA
:100D40000F910895FA01AA27283051F1203181F13D
:100D5000E8946F936E7F6E5F7F4F8F4F9F4FAF4FC3
:100D6000B1E03ED0B4E03CD0670F781F891F9A1FD6
:100D7000A11D680F791F8A1F911DA11D6A0F711D8A
:100D8000811D911DA11D20D009F468943F912AE096
:100D9000269F11243019305D3193DEF6CF0108957E
:100DA000462F4770405D4193B3E00FD0C9F7F6CFAF
:100DB000462F4F70405D4A3318F0495D31FD405277
:100DC000419302D0A9F7EACFB4E0A695979587950D
:100DD00077956795BA95C9F70097610571050895EC
:100DE0009B01AC010A2E0694579547953795279598
:100DF000BA95C9F7620F731F841F951FA01D089530
:100E00002F923F924F925F926F927F928F929F921A
:100E1000AF92BF92CF92DF92EF92FF920F931F9308
:100E2000CF93DF93CDB7DEB7CA1BDB0B0FB6F894B9
:100E3000DEBF0FBECDBF09942A88398848885F84F9
:100E40006E847D848C849B84AA84B984C884DF806A
:100E5000EE80FD800C811B81AA81B981CE0FD11D4E
:100E60000FB6F894DEBF0FBECDBFED010895F89424
:020E7000FFCFB2
:100E72000000E60120006F66667365745F783A20B1
:100E820025642C206F66667365745F793A20256449
:100E92000D0A002D2D2D2D2D2D2D2D2D2D2D2D2DF0
:100EA2002D2D2D2D2D2D2D2D2D2D2D2D2D2D2D2D70
:100EB2002D2D2D2D2D0D00583A2025640D0A005997
:100EC2003A2025640D0A004A6F79737469636B20B6
:100ED200646972656374696F6E3A2025640D0A0055
:100EE2004C65667420736C696465723A2025640DE2
:100EF2000A00526967687420736C696465723A20EB
:100F020025640D0A004C65667420627574746F6EF8
:100F120020707265737365640D005269676874208E
:100F2200627574746F6E20707265737365640D0000
:100F32004A6F79737469636B20627574746F6E2083
:0A0F4200707265737365640D0000A2
:00000001FF
