S01C000074746B5F343135355F6279676765726E5F6C61622E73726563AC
S11300000C9426010C9477030C9407050C942D058D
S11300100C9443010C9443010C9443010C94B203DB
S11300200C9443010C9443010C9443010C9443013C
S11300300C9443010C9443010C9443010C9443012C
S11300400C9443010C9443010C9443010C9443011C
S11300500C9443010C9443010C9443010C9443010C
S11300600C9443010C9443010C9443010C944301FC
S1130070000000000000005F0000000700070014FB
S11300807F147F14242A7F2A1223130864623649BA
S11300905522500005030000001C224100004122AB
S11300A01C00082A1C2A0808083E080800503000D2
S11300B00008080808080060600000201008040216
S11300C03E5149453E00427F40004261514946212C
S11300D041454B311814127F1027454545393C4A98
S11300E049493001710905033649494936064949E8
S11300F0291E00363600000056360000000814227F
S11301004114141414144122140800020151090664
S1130110324979413E7E1111117E7F494949363E6B
S1130120414141227F4141221C7F494949417F0984
S11301300901013E414151327F0808087F00417F97
S113014041002040413F017F081422417F4040404C
S1130150407F0204027F7F0408107F3E4141413EFC
S11301607F090909063E4151215E7F091929464646
S11301704949493101017F01013F4040403F1F206F
S113018040201F7F2018207F631408146303047821
S11301900403615149454300007F414102040810B2
S11301A02041417F000004020102044040404040DD
S11301B0000102040020545454787F4844443838E1
S11301C044444420384444487F3854545418087EE6
S11301D0090102081454543C7F0804047800447D47
S11301E040002040443D00007F10284400417F40EF
S11301F0007C041804787C080404783844444438A7
S11302007C14141408081414187C7C08040408488A
S113021054545420043F4440203C4040207C1C2043
S113022040201C3C4030403C44281028440C505092
S1130230503C4464544C44000836410000007F00A4
S113024000004136080002010302010011241FBE10
S1130250CFEFD4E0DEBFCDBF14E0A0E0B1E0E0E139
S1130260F5E102C005900D92A035B107D9F724E05D
S1130270A0E5B4E001C01D92A036B207E1F70E94E8
S11302800A040C94860A0C94000081B3806281BB3A
S11302908EB580618EBD8EB588608EBD8FB582604F
S11302A08FBD8FB581608FBD8FB58F778FBD8FB5B3
S11302B080648FBD8FB58F7D8FBD8FB58F7E8FBDD1
S11302C08EB58B7F8EBD8EB58D7F8EBD8EB58160D4
S11302D08EBD8FB5877F8FBD8FB58B7F8FBD089502
S11302E06091570470915804809159040895CF93F4
S11302F0DF9300D000D0CDB7DEB719821A821B82FB
S11303001C821092001491E39A95F1F7000020E00A
S113031030E00CC0F901FC5E9081E1E0F0E0EC0F0C
S1130320FD1FE20FF31F90832F5F3F4F24303105F1
S113033088F3E1E0F0E0EC0FFD1FE80FF11D808190
S11303400F900F900F900F90DF91CF91089583E05D
S11303500E9477018093510482E00E947701809388
S1130360500408958617A0F0462F50E0282F30E05F
S1130370241B350B64E6629FC001639F900D11241A
S11303806FEF70E0641B750B0E948007862F089541
S113039070E0282F30E0261B370B44E6429FC00153
S11303A0439F900D11240E948007862F0895CF93B8
S11303B0DF93C091510483E00E9477016C2F0E9467
S11303C0B201C82FD091500482E00E9477016D2FB2
S11303D00E94B201982F8C2FDF91CF910895282F7E
S11303E08A5B8D3848F4892F9A5B9D38D8F087341E
S11303F0DCF48634DCF015C027344CF0892F9A5B8A
S11304009D38B0F08734B4F48634B4F00AC026348E
S113041044F4892F9A5B9D3888F087348CF48634B1
S11304208CF0089584E0089582E0089583E00895AF
S113043081E0089585E0089587E0089580E00895B7
S113044086E0089588E00895CF93DF930E94D70152
S1130450C82FD92F0E94EF0190915904891328C005
S1130460909157042C2F0C2E000C330B291B3109AF
S113047097FD3395A901332324F444275527421BC0
S1130480530B44305105A4F4909158042D2F0D2E94
S1130490000C330B291B310997FD3395A901332334
S11304A024F444275527421B530B4430510544F090
S11304B0C0935704D09358048093590481E001C039
S11304C080E0DF91CF910895CF9381B38B7F81BB7F
S11304D0F8948BB780648BBF85B7826085BF85B77E
S11304E08E7F85BF78940E946A04C82F882334F4D1
S11304F08AEB92E00E9480058C2F01C080E0CF91AE
S11305000895EF92FF920F931F93CF93DF93CDB78C
S1130510DEB72B970FB6F894DEBF0FBECDBFE982CE
S1130520FA820B831C832D833E834F83588769870C
S11305307A878B8789819A81BC01687F77707695E9
S113054067957695679576956795182F1295110F8F
S1130550107E81E30E942504612F82E30E9425041A
S11305601B81612F85E30E94250480E30E9413040C
S113057083FD1AC0193010F088E08B8310E00CC0A2
S1130580E4E0F0E0EC0FFD1FE10FF11D608186E374
S1130590810F0E9425041F5F8B81181788F381E85F
S11305A00E943B0480E005C080EC92E00E9480053C
S11305B08FEF2B960FB6F894DEBF0FBECDBFDF9141
S11305C0CF911F910F91FF90EF900895CF92DF92FA
S11305D0EF92FF921F93CF93DF9300D0CDB7DEB796
S11305E06C0161113DC081E60E941304182F82E65C
S11305F00E941304282F229526952770812F90E0BE
S1130600880F991F880F991F880F991F822BF60155
S11306109183808385E60E9413048F70F6018283A0
S1130620893010F088E0828310E012C0E12EF12CB2
S113063086E6810F0E941304F601EE0DFF1D8383ED
S113064090E09A838983CE0101960E9480051F5F02
S1130650F6018281181750F383E494E00E94800528
S1130660C6010F900F90DF91CF911F91FF90EF90F3
S1130670DF90CF9008951F93CF93DF93CDB7DEB76C
S11306802B970FB6F894DEBF0FBECDBF182F80FF97
S113069009C060E0CE0101960E94E60288ED92E076
S11306A00E94800511FF09C061E0CE0101960E94FD
S11306B0E60283EE92E00E94800512FF04C08EEEF3
S11306C092E00E94800513FF04C089EF92E00E942B
S11306D0800560E08CE20E9425042B960FB6F89406
S11306E0DEBF0FBECDBFDF91CF911F9108951F9242
S11306F00F920FB60F9211242F933F934F935F9352
S11307006F937F938F939F93AF93BF93EF93FF93D5
S11307100E94F9040E943B03FF91EF91BF91AF91B6
S11307209F918F917F916F915F914F913F912F9105
S11307300F900FBE0F901F9018958FE190E00E94CC
S113074071070E946A070E9445010E9455050E9494
S1130750A7010E94DC060E9494060E9464020E9483
S11307608D0508951F920F920FB60F921124EF92E8
S1130770FF920F931F932F933F934F935F936F9326
S11307807F938F939F93AF93BF93EF93FF93CF93F5
S1130790DF93CDB7DEB72B97DEBFCDBF0E94240217
S11307A08823D9F00E947001272FFE0131969BE027
S11307B0DF011D929A95E9F795E4E92EF12C03E007
S11307C0162F382F4F81588569857A858B850E942D
S11307D0810285E093E00E9480052B960FB6F89481
S11307E0DEBF0FBECDBFDF91CF91FF91EF91BF91DF
S11307F0AF919F918F917F916F915F914F913F91B5
S11308002F911F910F91FF90EF900F900FBE0F90BB
S11308101F9018950E949D0385E193E00E94800536
S11308200E944906FDCFCF93C82F88B38F7E88BB23
S113083083E00E9462078C2F0E9462070E94650772
S113084098B3906198BBCF910895CF93DF93D82F3D
S1130850C62F88B38F7E88BB82E00E9462078D2FEB
S11308600E9462078C2F0E94620788B3806188BB54
S1130870DF91CF91089598B39F7E98BB0E94620741
S113088088B3806188BB08951F93CF93DF93182F9B
S1130890D62FC42F88B38F7E88BB85E00E94620761
S11308A0812F0E9462078D2F0E9462078C2F0E9465
S11308B0620788B3806188BBDF91CF911F9108954F
S11308C088B38F7E88BB80EC0E94620788B3806106
S11308D088BB0895CF93DF930E944F070E94600462
S11308E08EE00E941304807E803831F08BE293E026
S11308F00E9480058FEF7AC067E08DE00E94250496
S113090040E660E680E60E94440480E60E94130408
S1130910803631F08FE593E00E9480058EEF66C04B
S113092040E660E680E70E94440480E70E941304E6
S1130930C82FD0E0CE010E948005C036D10531F029
S113094084E893E00E9480058DEF50C045E06FEF8E
S11309508BE20E9444048BE20E941304853031F040
S113096089EA93E00E9480058CEF40C043E063E095
S11309708AE20E9444048AE20E941304833031F024
S113098087EC93E00E9480058BEF30C041EB61EB74
S113099089E20E94440489E20E941304813B31F0FD
S11309A089ED93E00E9480058AEF20C045E065E070
S11309B088E20E94440488E20E941304853031F0E6
S11309C089ED93E00E94800589EF10C060E08FE01C
S11309D00E9425048EE00E941304807E31F08CEE88
S11309E093E00E94800588EF01C080E0DF91CF9101
S11309F0089588B38F7E88BB80EA0E9462070E94B4
S1130A0065070E94650798B3906198BB08951F928B
S1130A100F920FB60F9211242F933F934F935F932E
S1130A206F937F938F939F93AF93BF93EF93FF93B2
S1130A308EE094E00E948005FF91EF91BF91AF9109
S1130A409F918F917F916F915F914F913F912F91E2
S1130A500F900FBE0F901F9018951F920F920FB614
S1130A600F9211242F933F934F935F936F937F9330
S1130A708F939F93AF93BF93EF93FF9385E294E09B
S1130A800E9480050E946306FF91EF91BF91AF9190
S1130A909F918F917F916F915F914F913F912F9192
S1130AA00F900FBE0F901F90189581B3877F81BB65
S1130AB086B18E7F86B9F8948BB780688BBF85B773
S1130AC0886085BF85B7846085BF8BB78E7F8BBFF9
S1130AD086B78E7F86BF8AB780628ABF8BB78062F3
S1130AE08BBF789408952EE031E030935D04209319
S1130AF05C049F938F930E94A8070F900F90089512
S1130B0020E031E030935D0420935C049F938F9345
S1130B100E94A8070F900F90089580E480938B00A3
S1130B208DE080938A0080E180937D0084ED91E0E4
S1130B30909387008093860008958FE394E00E9449
S1130B408005089586E494E00E948005089588E174
S1130B500E94C90688E10E94C9068EE70E94C90660
S1130B608CE30E94C90688E10E94C90608951F9378
S1130B70CF93DF93C0915304D09154040E94CC06C8
S1130B8080E00E94AF0688E20E94B306CE010E9474
S1130B90730510E013C04CE1489FE001499FD00D5C
S1130BA011246896C20FD31F1F5F812F0E94AF06C6
S1130BB088E00E94B306CE010E947305812F90E065
S1130BC02091530430915404F901E857FF4F4081B8
S1130BD0518184179507FCF260E081E00E94C00611
S1130BE00E94A70581E080935504DF91CF911F9166
S1130BF008959093540480935304FC01E857FF4FE5
S1130C008081809356040E94B7050895CF93C0E075
S1130C1004C080E00E94C906CF5FC530D0F3CF91F5
S1130C200895809155048230B8F090915604981735
S1130C3098F00E94AF0680E00E94B3060E94060668
S1130C40809155048150809355040E94AF0680E042
S1130C500E94B3060E94A705089580915504882335
S1130C60B9F090915604891798F40E94AF0680E079
S1130C700E94B3060E940606809155048F5F8093FC
S1130C8055040E94AF0680E00E94B3060E94A705A7
S1130C900895CF930E94D7010E94EF01C82F83309B
S1130CA039F480915204C81719F00E942D0607C028
S1130CB0C23029F480915204C8130E941106C093D3
S1130CC05204CF910895CF93DF93CDB7DEB76C97DD
S1130CD00FB6F894DEBF0FBECDBFE0915304F09180
S1130CE054042091550430E0215031094CE1429FD5
S1130CF0C001439F900D1124E80FF91F78968CE1F1
S1130D00DE01119601900D928A95E1F7E98DFA8D35
S1130D108B8D9C8D09956C960FB6F894DEBF0FBE33
S1130D20CDBFDF91CF910895ECE1F1E086EA91E047
S1130D3093AB82AB80E392E090936B0180936A0162
S1130D40F093F501E093F401F0937F02E0937E02C7
S1130D50CF010E94F90508958093001008958055ED
S1130D600E94AC060895CF93C82FC295CF708F70A0
S1130D700E94AC068C2F80610E94AC06CF9108952E
S1130D80CF93C62F0E94AF068C2F0E94B306CF913B
S1130D900895809300120895CF93DF93C0E0D0E0CC
S1130DA004C080E00E94C9062196C11584E0D807DA
S1130DB0C0F3DF91CF9108958EEA0E94AC0681EAD8
S1130DC00E94AC068AED0E94AC0682E10E94AC0649
S1130DD088EC0E94AC0688EA0E94AC068FE30E946D
S1130DE0AC0685ED0E94AC0680E80E94AC0681E862
S1130DF00E94AC068FEF0E94AC0689ED0E94AC06FF
S1130E0081E20E94AC0680E20E94AC0680E00E946F
S1130E10AC068BED0E94AC0680E30E94AC068DEA22
S1130E200E94AC0680E00E94AC0684EA0E94AC06F4
S1130E3086EA0E94AC068FEA0E94AC0681E20E9418
S1130E40AC0680E00E94AC068FEF0E94AC0682E202
S1130E500E94AC0680E00E94AC068FEF0E94AC06B4
S1130E600E94CC060895CF93DF93D0EED80FC0E054
S1130E7011C08D2F90E0FC01EE0FFF1FEE0FFF1F3E
S1130E80E80FF91FEC0FF11DE059FF4F84910E9408
S1130E90C906CF5FC53068F3DF91CF91089587B35A
S1130EA0806187BB87B3806287BB87B3806887BB59
S1130EB081E58DB988B3806188BB08958FB9779B2C
S1130EC0FECF08950E945E07089584EF0E945E0796
S1130ED08FB1089585B7806885BF80B7806280BF71
S1130EE0089590BD89B988E18AB98EE880BD0895D6
S1130EF05D9BFECF8CB908955F9BFECF8CB10895A6
S1130F0097FB072E16F4009407D077FD09D00E94B2
S1130F10940707FC05D03EF4909581959F4F089562
S1130F20709561957F4F0895AA1BBB1B51E107C0C3
S1130F30AA1FBB1FA617B70710F0A61BB70B881F65
S1130F40991F5A95A9F780959095BC01CD010895F4
S1130F50A0E0B0E0EEEAF7E00C945F0AAE014B5F6C
S1130F605F4FFA0161917191AF0180915C0490919E
S1130F705D040E94BE07E2E00C947B0AABE0B0E0A3
S1130F80E4ECF7E00C944F0A6C017B018A01FC014C
S1130F9017821682838181FFCCC1CE0101963C0168
S1130FA0F6019381F70193FD859193FF81917F0170
S1130FB0882309F4BAC1853239F493FD859193FFEE
S1130FC081917F01853229F4B60190E00E94B50930
S1130FD0E7CF912C212C312CFFE1F315D8F08B3283
S1130FE079F038F4803279F08332A1F4232D206132
S1130FF01DC08D3261F0803369F4232D216016C049
S1131000832D8260382EE32DE4603E2E2AC0F32D1A
S1131010F8601DC037FC2DC020ED280F2A3040F0A9
S11310208E32B9F436FC81C1232D2064322E19C0CE
S113103036FE06C08AE0989E200D1124922E11C01F
S1131040EAE02E9E200D1124222EF32DF0623F2E75
S113105008C08C3621F4832D8068382E02C088366F
S113106041F4F70193FD859193FF81917F018111F3
S1131070B3CF982F9F7D9554933028F40C5F1F4F66
S11310809FE399830DC0833631F0833771F0833544
S113109009F059C021C0F801808189830E5F1F4F78
S11310A088248394912C530113C02801F2E04F0E3D
S11310B0511CF801A080B18036FE03C0692D70E098
S11310C002C06FEF7FEFC5010E94AA094C018201A3
S11310D0F32DFF773F2E16C0280122E0420E511C4B
S11310E0F801A080B18036FE03C0692D70E002C013
S11310F06FEF7FEFC5010E949F094C01F32DF0684B
S11311003F2E820133FC1BC0822D90E08816990685
S1131110B0F4B60180E290E00E94B5092A94F4CFBD
S1131120F50137FC859137FE81915F01B60190E0AE
S11311300E94B50921102A9421E0821A9108811491
S1131140910471F7E8C0843611F0893641F5F8014D
S113115037FE07C060817181828193810C5F1F4FCC
S113116008C060817181072E000C880B990B0E5FFB
S11311701F4FF32DFF763F2E97FF09C09095809562
S1131180709561957F4F8F4F9F4FF0683F2E2AE0F7
S113119030E0A3010E94F109882E861845C08537E6
S11311A031F4232D2F7EB22E2AE030E025C0932D7A
S11311B0997FB92E8F36C1F018F4883579F0B5C00F
S11311C0803719F0883721F0B0C0E92FE061BE2ED6
S11311D0B4FE0DC0FB2DF460BF2E09C034FE0AC05E
S11311E0292F2660B22E06C028E030E005C020E199
S11311F030E002C020E132E0F801B7FE07C06081B0
S11312007181828193810C5F1F4F06C0608171815F
S113121080E090E00E5F1F4FA3010E94F109882E29
S11312208618FB2DFF773F2E36FE0DC0232D2E7F13
S1131230A22E891458F434FE0BC032FC09C0832D4D
S11312408E7EA82E05C0B82CA32C03C0B82C01C0D8
S1131250B92CA4FE0FC0FE01E80DF11D808180337E
S113126021F49A2D997EA92E09C0A2FE06C0B3943A
S1131270B39404C08A2D867809F0B394A3FC11C0FA
S1131280A0FE06C0B21488F4280C922C9B180EC041
S1131290B21460F4B60180E290E00E94B509B39400
S11312A0F7CFB21418F42B1802C0982C212CA4FEEA
S11312B010C0B60180E390E00E94B509A2FE17C0F9
S11312C0A1FC03C088E790E002C088E590E0B60185
S11312D00CC08A2D867859F0A1FE02C08BE201C0B1
S11312E080E2A7FC8DE2B60190E00E94B509891462
S11312F038F4B60180E390E00E94B5099A94F7CFE0
S11313008A94F301E80DF11D8081B60190E00E94FA
S1131310B5098110F5CF222009F442CEB60180E24E
S113132090E00E94B5092A94F6CFF6018681978150
S113133002C08FEF9FEF2B96E2E10C946B0AFC0145
S11313400590615070400110D8F7809590958E0FEC
S11313509F1F0895FC016150704001900110D8F75F
S1131360809590958E0F9F1F08950F931F93CF9391
S1131370DF93FB01238121FD03C08FEF9FEF2CC07E
S113138022FF16C0468157812481358142175307B5
S113139044F4A081B1819D012F5F3F4F31832083AD
S11313A08C93268137812F5F3F4F3783268314C068
S11313B08B01EC01FB010084F185E02D0995892B5B
S11313C0E1F6D80116968D919C9117970196179680
S11313D09C938E931697CE01DF91CF911F910F911D
S11313E00895FA01AA27283051F1203181F1E894B7
S11313F06F936E7F6E5F7F4F8F4F9F4FAF4FB1E004
S11314003ED0B4E03CD0670F781F891F9A1FA11DFE
S1131410680F791F8A1F911DA11D6A0F711D811DFF
S1131420911DA11D20D009F468943F912AE0269FC4
S113143011243019305D3193DEF6CF010895462F23
S11314404770405D4193B3E00FD0C9F7F6CF462F04
S11314504F70405D4A3318F0495D31FD405241936D
S113146002D0A9F7EACFB4E0A6959795879577952A
S11314706795BA95C9F700976105710508959B01B1
S1131480AC010A2E06945795479537952795BA953A
S1131490C9F7620F731F841F951FA01D08952F9213
S11314A03F924F925F926F927F928F929F92AF92F0
S11314B0BF92CF92DF92EF92FF920F931F93CF933D
S11314C0DF93CDB7DEB7CA1BDB0B0FB6F894DEBFD4
S11314D00FBECDBF09942A88398848885F846E84FA
S11314E07D848C849B84AA84B984C884DF80EE8044
S11314F0FD800C811B81AA81B981CE0FD11D0FB64D
S1131500F894DEBF0FBECDBFED010895F894FFCF70
S1131510000000030000000078077C0700000000C2
S11315200002000000003307000000004D61696EF6
S1131530204D656E750000000000000000000000F2
S113154000000000537562204D656E752031000067
S1131550000000000000000000000000F905000089
S1131560537562204D656E75203200000000000046
S11315700000000000000000F90500000000000069
S11315800000000000000000000000000000000057
S11315900000000000000000000000000000000047
S11315A00000000000000000000000000000000037
S11315B0000000000200537562204D656E752031F5
S11315C00000000000000000000000000000416373
S11315D074696F6E203100000000000000000000FC
S11315E00000000000009D0500004261636B0000E4
S11315F000000000000000000000000000000000E7
S11316000000F905000000000000000000000000D8
S113161000000000000000000000000000000000C6
S113162000000000000000000000000000000000B6
S113163000000000000000000000000000000200A4
S1131640537562204D656E75203200000000000065
S11316500000000000000000416374696F6E2031D7
S11316600000000000000000000000000000000076
S1131670A20500004261636B00000000000000004E
S1131680000000000000000000000000F905000058
S11316900000000000000000000000000000000046
S11316A00000000000000000000000000000000036
S11316B00000000000000000000000000000000026
S11316C0000000000000000002006572726F7200EA
S11316D042756666657230206E6F7420617661694A
S11316E06C61626C650D0A005258302046756C6C52
S11316F00D0A005258312046756C6C0D0A0054587E
S11317003020427573790D0A0054583020456D70AD
S113171074790D0A004A6F79737469636B20736579
S11317206E740A0D0050726F6772616D20696E6984
S11317307469616C697A65640D0A004D43503235F1
S11317403135206973204E4F5420696E20636F6ECB
S113175066696775726174696F6E206D6F64652068
S11317606166746572207265736574210D0A005296
S113177065636569766520627566666572203020EA
S1131780636F6E66696720696E636F7272656374F6
S1131790210D0A0052656365697665206275666687
S11317A06572203120636F6E66696720696E636FAE
S11317B07272656374210D0A00496E7465727275E4
S11317C0707420636F6E66696720696E636F7272EE
S11317D0656374210D0A002042525020696E636FC4
S11317E07272656374210D0A0020434E46322069EB
S11317F06E636F7272656374210D0A00204D43504D
S113180032353135206973204E4F5420696E204E95
S11318106F726D616C206D6F6465210D0A005269F1
S113182067687420627574746F6E20707265737368
S113183065640D0A004A6F79737469636B2062757D
S113184074746F6E20707265737365640D0A00683A
S11318506569200D0A0068616C6C6F200D0A000038
S9030000FC
