:100000000C9426010C94A6030C943B050C948405D7
:100010000C9443010C9443010C9443010C94E503AC
:100020000C9443010C9443010C9443010C94430140
:100030000C9443010C9443010C9443010C94430130
:100040000C9443010C9443010C9443010C94430120
:100050000C9443010C9443010C9443010C94430110
:100060000C9443010C9443010C9443010C94430100
:10007000000000000000005F0000000700070014FF
:100080007F147F14242A7F2A1223130864623649BE
:100090005522500005030000001C224100004122AF
:1000A0001C00082A1C2A0808083E080800503000D6
:1000B000000808080808006060000020100804021A
:1000C0003E5149453E00427F400042615149462130
:1000D00041454B311814127F1027454545393C4A9C
:1000E00049493001710905033649494936064949EC
:1000F000291E003636000000563600000008142283
:100100004114141414144122140800020151090668
:10011000324979413E7E1111117E7F494949363E6F
:10012000414141227F4141221C7F494949417F0988
:100130000901013E414151327F0808087F00417F9B
:1001400041002040413F017F081422417F40404050
:10015000407F0204027F7F0408107F3E4141413E00
:100160007F090909063E4151215E7F09192946464A
:100170004949493101017F01013F4040403F1F2073
:1001800040201F7F2018207F631408146303047825
:100190000403615149454300007F414102040810B6
:1001A0002041417F000004020102044040404040E1
:1001B000000102040020545454787F4844443838E5
:1001C00044444420384444487F3854545418087EEA
:1001D000090102081454543C7F0804047800447D4B
:1001E00040002040443D00007F10284400417F40F3
:1001F000007C041804787C080404783844444438AB
:100200007C14141408081414187C7C08040408488E
:1002100054545420043F4440203C4040207C1C2047
:1002200040201C3C4030403C44281028440C505096
:10023000503C4464544C44000836410000007F00A8
:1002400000004136080002010302010011241FBE14
:10025000CFEFD4E0DEBFCDBF14E0A0E0B1E0ECE230
:10026000F7E102C005900D92AC35B107D9F724E053
:10027000ACE5B4E001C01D92AE36B207E1F70E94D2
:1002800042040C94940B0C94000081B3806281BBF7
:100290008EB580618EBD8EB588608EBD8FB5826053
:1002A0008FBD8FB581608FBD8FB58F778FBD8FB5B7
:1002B00080648FBD8FB58F7D8FBD8FB58F7E8FBDD5
:1002C0008EB58B7F8EBD8EB58D7F8EBD8EB58160D8
:1002D0008EBD8FB5877F8FBD8FB58B7F8FBD089506
:1002E0006091640470916504809166040895CF93D1
:1002F000DF9300D000D0CDB7DEB719821A821B82FF
:100300001C821092001491E39A95F1F7000020E00E
:1003100030E00CC0F901FC5E9081E1E0F0E0EC0F10
:10032000FD1FE20FF31F90832F5F3F4F24303105F5
:1003300088F3E1E0F0E0EC0FFD1FE80FF11D808194
:100340000F900F900F900F90DF91CF91089583E061
:100350000E94770180935D0482E00E947701809380
:100360005C0408958617A0F0462F50E0282F30E057
:10037000241B350B64E6629FC001639F900D11241E
:100380006FEF70E0641B750B0E948E08862F089536
:1003900070E0282F30E0261B370B44E6429FC00157
:1003A000439F900D11240E948E08862F0895CF93AD
:1003B000DF93C0915D0483E00E9477016C2F0E945F
:1003C000B201C82FD0915C0482E00E9477016D2FAA
:1003D0000E94B201982F8C2FDF91CF910895282F82
:1003E0008A5B8D3848F4892F9A5B9D38D8F0873422
:1003F000DCF48634DCF015C027344CF0892F9A5B8E
:100400009D38B0F08734B4F48634B4F00AC0263492
:1004100044F4892F9A5B9D3888F087348CF48634B5
:100420008CF0089584E0089582E0089583E00895B3
:1004300081E0089585E0089587E0089580E00895BB
:1004400086E0089588E00895CF93DF930E94D70156
:10045000C82FD92F0E94EF0190916604891328C0FC
:10046000909164042C2F0C2E000C330B291B3109A6
:1004700097FD3395A901332324F444275527421BC4
:10048000530B44305105A4F4909165042D2F0D2E8B
:10049000000C330B291B310997FD3395A901332338
:1004A00024F444275527421B530B4430510544F094
:1004B000C0936404D09365048093660481E001C016
:1004C00080E0DF91CF9108950E94770124E6829F1A
:1004D000C00111246FEF70E00E948E08862F0895EE
:1004E00081E00E946402282F30E090916704291B6C
:1004F0003109A90122F444275527421B530B4330ED
:10050000510524F08093670481E0089580E0089508
:10051000809167040895CF9381B38B7F81BBF8945A
:100520008BB780648BBF85B7826085BF85B78E7FB0
:1005300085BF78940E949E04C82F882334F481EDEF
:1005400092E00E94D7058C2F01C080E0CF910895E2
:10055000EF92FF920F931F93CF93DF93CDB7DEB748
:100560002B970FB6F894DEBF0FBECDBFE982FA829B
:100570000B831C832D833E834F83588769877A873B
:100580008B8789819A81BC01687F777076956795A2
:100590007695679576956795182F1295110F107EB1
:1005A00081E30E945904612F82E30E9459041B8158
:1005B000612F85E30E94590480E30E94470483FD74
:1005C0001AC0193010F088E08B8310E00CC0E4E012
:1005D000F0E0EC0FFD1FE10FF11D608186E3810F5C
:1005E0000E9459041F5F8B81181788F381E80E94CD
:1005F0006F0480E005C087ED92E00E94D7058FEF81
:100600002B960FB6F894DEBF0FBECDBFDF91CF9112
:100610001F910F91FF90EF900895AF92BF92CF92EC
:10062000DF92EF92FF921F93CF93DF9300D0CDB76D
:10063000DEB76C01611141C081E60E944704A82E1B
:1006400082E60E944704829586958770B12CAA0C99
:10065000BB1CAA0CBB1CAA0CBB1CA82AF601B182AD
:10066000A08285E60E9447048F70F601828389305C
:1006700010F088E0828310E012C0E12EF12C86E6B3
:10068000810F0E944704F601EE0DFF1D838390E069
:100690009A838983CE0101960E94D7051F5FF601D8
:1006A0008281181750F382E194E00E94D705F3E0AD
:1006B000AF16B10411F40E94BF06C6010F900F904F
:1006C000DF91CF911F91FF90EF90DF90CF90BF907F
:1006D000AF9008951F93CF93DF93CDB7DEB72B97DD
:1006E0000FB6F894DEBF0FBECDBF182F80FF09C034
:1006F00060E0CE0101960E940D038FEE92E00E9411
:10070000D70511FF09C061E0CE0101960E940D03DB
:100710008AEF92E00E94D70512FF04C085E093E0C3
:100720000E94D70513FF04C080E193E00E94D70523
:1007300060E08CE20E9459042B960FB6F894DEBF5D
:100740000FBECDBFDF91CF911F9108951F920F92E1
:100750000FB60F9211242F933F934F935F936F9394
:100760007F938F939F93AF93BF93EF93FF930E94D9
:100770002D050E946A03FF91EF91BF91AF919F9168
:100780008F917F916F915F914F913F912F910F903A
:100790000FBE0F901F9018958FE190E00E947F0888
:1007A0000E9478080E9445010E94AC050E94A701A2
:1007B0000E94EA070E94A2070E948B020E94E405A1
:1007C0008CE193E00E94D70508951F920F920FB617
:1007D0000F921124DF92EF92FF920F931F932F93AA
:1007E0003F934F935F936F937F938F939F93AF93B9
:1007F000BF93EF93FF93CF93DF93CDB7DEB72B97E4
:10080000DEBFCDBF0E942402811104C00E9470028D
:100810008823D1F00E947001162FD82E0E948802E2
:10082000FE0131969BE0DF011D929A95E9F791E078
:10083000E92EF12C03E0282F3D2D4F815885698545
:100840007A858B850E94A8022B960FB6F894DEBF9E
:100850000FBECDBFDF91CF91FF91EF91BF91AF91CF
:100860009F918F917F916F915F914F913F912F91C8
:100870001F910F91FF90EF90DF900F900FBE0F90A0
:100880001F9018950E94CC030E945707FDCFCF936D
:10089000C82F88B38F7E88BB83E00E9470088C2F9E
:1008A0000E9470080E94730898B3906198BBCF9122
:1008B0000895CF93DF93D82FC62F88B38F7E88BB40
:1008C00082E00E9470088D2F0E9470088C2F0E9479
:1008D000700888B3806188BBDF91CF91089598B389
:1008E0009F7E98BB0E94700888B3806188BB089582
:1008F0001F93CF93DF93182FD62FC42F88B38F7EEB
:1009000088BB85E00E947008812F0E9470088D2F9F
:100910000E9470088C2F0E94700888B3806188BB89
:10092000DF91CF911F91089588B38F7E88BB80ECB3
:100930000E94700888B3806188BB0895CF93DF93CD
:100940000E945D080E9494048EE00E944704807E0D
:10095000803831F082E393E00E94D7058FEF7AC0B0
:1009600067E08DE00E94590440E660E680E60E9460
:10097000780480E60E944704803631F086E693E0F2
:100980000E94D7058EEF66C040E660E680E70E94D1
:10099000780480E70E944704C82FD0E0CE010E946F
:1009A000D705C036D10531F08BE893E00E94D7051A
:1009B0008DEF50C045E06FEF8BE20E9478048BE230
:1009C0000E944704853031F080EB93E00E94D70508
:1009D0008CEF40C043E063E08AE20E9478048AE240
:1009E0000E944704833031F08EEC93E00E94D705DB
:1009F0008BEF30C041EB61EB89E20E94780489E221
:100A00000E944704813B31F080EE93E00E94D705BD
:100A10008AEF20C045E065E088E20E94780488E221
:100A20000E944704853031F080EE93E00E94D705A4
:100A300089EF10C060E08FE00E9459048EE00E94B0
:100A40004704807E31F083EF93E00E94D70588EF62
:100A500001C080E0DF91CF91089588B38F7E88BB7D
:100A600080EA0E9470080E9473080E94730898B37D
:100A7000906198BB08951F920F920FB60F921124A8
:100A8000EF92FF920F931F932F933F934F935F9398
:100A90006F937F938F939F93AF93BF93EF93FF9346
:100AA00085E194E00E94D705E0E0F1E081E0182FB5
:100AB0008383282F8483E0900001F090010100914E
:100AC00002013091050140910601509107016091AA
:100AD00008017091090180910A010E94A802FF910A
:100AE000EF91BF91AF919F918F917F916F915F91A6
:100AF0004F913F912F911F910F91FF90EF900F9089
:100B00000FBE0F901F9018951F920F920FB60F9265
:100B100011242F933F934F935F936F937F938F9302
:100B20009F93AF93BF93EF93FF938CE294E00E9467
:100B3000D7050E947107FF91EF91BF91AF919F91EF
:100B40008F917F916F915F914F913F912F910F9076
:100B50000FBE0F901F90189581B3877F81BB86B120
:100B60008E7F86B9F8948BB780688BBF85B7886015
:100B700085BF85B7846085BF8BB78E7F8BBF86B7F7
:100B80008E7F86BF8AB780628ABF8BB780628BBF39
:100B90007894089529E131E030936B0420936A043E
:100BA0009F938F930E94B6080F900F9008952BE0AB
:100BB00031E030936B0420936A049F938F930E94DB
:100BC000B6080F900F90089580E480938B008DE01D
:100BD00080938A0080E180937D0084ED91E0909382
:100BE000870080938600089588E10E94D70788E1F6
:100BF0000E94D7078EE70E94D7078CE30E94D70791
:100C000088E10E94D70708951F93CF93DF93C09187
:100C10006004D09161040E94DA0780E00E94BD0761
:100C200088E20E94C107CE010E94CA0510E013C0ED
:100C30004CE1489FE001499FD00D11246896C20FF6
:100C4000D31F1F5F812F0E94BD0788E00E94C1074C
:100C5000CE010E94CA05812F90E02091600430915E
:100C60006104F901E857FF4F4081518184179507CE
:100C7000FCF260E081E00E94CE070E94F40581E072
:100C800080936204DF91CF911F910895EF92FF92BC
:100C90000F931F939093610480936004FC01E857C5
:100CA000FF4F8081809363040E9404068091630457
:100CB00068E28D5F0E94CE0786E494E00E94CA0538
:100CC00080915F04805D0E9441088091C80281117B
:100CD0001CC010925F0481E0182F8093C802E0903E
:100CE000C502F090C6020091C7022091C90230915E
:100CF000CA024091CB025091CC026091CD0270911A
:100D0000CE028091CF020E94A8021F910F91FF9006
:100D1000EF90089510925F049093610480936004B3
:100D2000FC01E857FF4F8081809363040E94040612
:100D30000895EF92FF920F931F9387E291E00E9434
:100D40008A061092C802E090C502F090C602009197
:100D5000C70210E02091C9023091CA024091CB0233
:100D60005091CC026091CD027091CE028091CF0261
:100D70000E94A8021F910F91FF90EF90089580911B
:100D8000C802882391F080915F048F5F80935F0495
:100D90009091D002891718F00E94990608958091C9
:100DA0006004909161040E94460608959093610446
:100DB00080936004FC01E857FF4F808180936304B7
:100DC0000E9404068091630468E18D5F0E94CE0753
:100DD0008EE494E00E94CA058091D002805D0E945A
:100DE000410808958091D0028F5F8093D0028A30AD
:100DF00018F089E08093D0028091600490916104A2
:100E00000E94D60608958091D00281508093D0022E
:100E1000811103C081E08093D002809160049091A1
:100E200061040E94D6060895CF93C0E004C080E01C
:100E30000E94D707CF5FC530D0F3CF91089580913E
:100E400062048230B8F090916304981798F00E9481
:100E5000BD0780E00E94C1070E94140780916204D0
:100E60008150809362040E94BD0780E00E94C10708
:100E70000E94F4050895809162048823B9F090914E
:100E80006304891798F40E94BD0780E00E94C1079F
:100E90000E941407809162048F5F809362040E9415
:100EA000BD0780E00E94C1070E94F4050895CF931A
:100EB0000E94D7010E94EF01C82F833039F480913E
:100EC0005E04C81719F00E943B0707C0C23029F41E
:100ED00080915E04C8130E941F07C0935E04CF91E7
:100EE0000895CF93DF93CDB7DEB76C970FB6F89424
:100EF000DEBF0FBECDBFE0916004F0916104209190
:100F0000620430E0215031094CE1429FC001439F0F
:100F1000900D1124E80FF91F78968CE1DE011196EF
:100F200001900D928A95E1F7E98DFA8D8B8D9C8D5C
:100F300009956C960FB6F894DEBF0FBECDBFDF915A
:100F4000CF910895E7E2F1E0A1EBB1E0B3ABA2AB42
:100F50008BE392E09093760180937501D396FC9396
:100F6000EE93D297F093A602E093A502CF010E94E0
:100F70008A06089580930010089580550E94BA074C
:100F80000895CF93C82FC295CF708F700E94BA0773
:100F90008C2F80610E94BA07CF910895CF93C62FFE
:100FA0000E94BD078C2F0E94C107CF9108958093A6
:100FB00000120895CF93DF93C0E0D0E004C080E03A
:100FC0000E94D7072196C11584E0D807C0F3DF91AE
:100FD000CF9108958EEA0E94BA0781EA0E94BA076B
:100FE0008AED0E94BA0782E10E94BA0788EC0E944B
:100FF000BA0788EA0E94BA078FE30E94BA0785ED14
:101000000E94BA0780E80E94BA0781E80E94BA07E6
:101010008FEF0E94BA0789ED0E94BA0781E20E9411
:10102000BA0780E20E94BA0780E00E94BA078BEDFF
:101030000E94BA0780E30E94BA078DEA0E94BA07AD
:1010400080E00E94BA0784EA0E94BA0786EA0E94FA
:10105000BA078FEA0E94BA0781E20E94BA0780E0CD
:101060000E94BA078FEF0E94BA0782E20E94BA0775
:1010700080E00E94BA078FEF0E94BA070E94DA0749
:101080000895CF93DF93D0EED80FC0E011C08D2F1D
:1010900090E0FC01EE0FFF1FEE0FFF1FE80FF91F9E
:1010A000EC0FF11DE059FF4F84910E94D707CF5FED
:1010B000C53068F3DF91CF91089587B3806187BB16
:1010C00087B3806287BB87B3806887BB81E58DB9B2
:1010D00088B3806188BB08958FB9779BFECF089550
:1010E0000E946C08089584EF0E946C088FB10895E7
:1010F00085B7806885BF80B7806280BF089590BD46
:1011000089B988E18AB98EE880BD08955D9BFECFDC
:101110008CB908955F9BFECF8CB1089597FB072E85
:1011200016F4009407D077FD09D00E94A20807FCAE
:1011300005D03EF4909581959F4F089570956195E7
:101140007F4F0895AA1BBB1B51E107C0AA1FBB1FFD
:10115000A617B70710F0A61BB70B881F991F5A9543
:10116000A9F780959095BC01CD010895A0E0B0E06D
:10117000ECEBF8E00C946D0BAE014B5F5F4FFA01A6
:1011800061917191AF0180916A0490916B040E940A
:10119000CC08E2E00C94890BABE0B0E0E2EDF8E0C3
:1011A0000C945D0B6C017B018A01FC011782168295
:1011B000838181FFCCC1CE0101963C01F601938170
:1011C000F70193FD859193FF81917F01882309F4B5
:1011D000BAC1853239F493FD859193FF81917F01E6
:1011E000853229F4B60190E00E94C30AE7CF912C22
:1011F000212C312CFFE1F315D8F08B3279F038F443
:10120000803279F08332A1F4232D20611DC08D320C
:1012100061F0803369F4232D216016C0832D826034
:10122000382EE32DE4603E2E2AC0F32DF8601DC059
:1012300037FC2DC020ED280F2A3040F08E32B9F453
:1012400036FC81C1232D2064322E19C036FE06C023
:101250008AE0989E200D1124922E11C0EAE02E9E65
:10126000200D1124222EF32DF0623F2E08C08C3663
:1012700021F4832D8068382E02C0883641F4F701AE
:1012800093FD859193FF81917F018111B3CF982FB9
:101290009F7D9554933028F40C5F1F4F9FE39983F3
:1012A0000DC0833631F0833771F0833509F059C0B2
:1012B00021C0F801808189830E5F1F4F88248394A9
:1012C000912C530113C02801F2E04F0E511CF8017C
:1012D000A080B18036FE03C0692D70E002C06FEFC0
:1012E0007FEFC5010E94B80A4C018201F32DFF7700
:1012F0003F2E16C0280122E0420E511CF801A080AA
:10130000B18036FE03C0692D70E002C06FEF7FEF41
:10131000C5010E94AD0A4C01F32DF0683F2E8201F9
:1013200033FC1BC0822D90E088169906B0F4B601FC
:1013300080E290E00E94C30A2A94F4CFF50137FCC2
:10134000859137FE81915F01B60190E00E94C30A4A
:1013500021102A9421E0821A91088114910471F7D6
:10136000E8C0843611F0893641F5F80137FE07C030
:1013700060817181828193810C5F1F4F08C0608101
:101380007181072E000C880B990B0E5F1F4FF32DF8
:10139000FF763F2E97FF09C09095809570956195D7
:1013A0007F4F8F4F9F4FF0683F2E2AE030E0A30120
:1013B0000E94FF0A882E861845C0853731F4232DF8
:1013C0002F7EB22E2AE030E025C0932D997FB92ED2
:1013D0008F36C1F018F4883579F0B5C0803719F030
:1013E000883721F0B0C0E92FE061BE2EB4FE0DC0F9
:1013F000FB2DF460BF2E09C034FE0AC0292F2660E1
:10140000B22E06C028E030E005C020E130E002C086
:1014100020E132E0F801B7FE07C06081718182816E
:1014200093810C5F1F4F06C06081718180E090E066
:101430000E5F1F4FA3010E94FF0A882E8618FB2D06
:10144000FF773F2E36FE0DC0232D2E7FA22E89144E
:1014500058F434FE0BC032FC09C0832D8E7EA82EBA
:1014600005C0B82CA32C03C0B82C01C0B92CA4FE15
:101470000FC0FE01E80DF11D8081803321F49A2D0B
:10148000997EA92E09C0A2FE06C0B394B39404C0ED
:101490008A2D867809F0B394A3FC11C0A0FE06C083
:1014A000B21488F4280C922C9B180EC0B21460F46D
:1014B000B60180E290E00E94C30AB394F7CFB21461
:1014C00018F42B1802C0982C212CA4FE10C0B601D1
:1014D00080E390E00E94C30AA2FE17C0A1FC03C0F3
:1014E00088E790E002C088E590E0B6010CC08A2D44
:1014F000867859F0A1FE02C08BE201C080E2A7FC11
:101500008DE2B60190E00E94C30A891438F4B60156
:1015100080E390E00E94C30A9A94F7CF8A94F30183
:10152000E80DF11D8081B60190E00E94C30A811090
:10153000F5CF222009F442CEB60180E290E00E946D
:10154000C30A2A94F6CFF6018681978102C08FEFF5
:101550009FEF2B96E2E10C94790BFC010590615012
:1015600070400110D8F7809590958E0F9F1F0895B9
:10157000FC016150704001900110D8F78095909562
:101580008E0F9F1F08950F931F93CF93DF93FB013F
:10159000238121FD03C08FEF9FEF2CC022FF16C0D7
:1015A00046815781248135814217530744F4A08135
:1015B000B1819D012F5F3F4F318320838C93268122
:1015C00037812F5F3F4F3783268314C08B01EC0197
:1015D000FB010084F185E02D0995892BE1F6D80106
:1015E00016968D919C911797019617969C938E93C2
:1015F0001697CE01DF91CF911F910F910895FA01B7
:10160000AA27283051F1203181F1E8946F936E7F41
:101610006E5F7F4F8F4F9F4FAF4FB1E03ED0B4E032
:101620003CD0670F781F891F9A1FA11D680F791F73
:101630008A1F911DA11D6A0F711D811D911DA11D84
:1016400020D009F468943F912AE0269F1124301994
:10165000305D3193DEF6CF010895462F4770405D2F
:101660004193B3E00FD0C9F7F6CF462F4F70405DDE
:101670004A3318F0495D31FD4052419302D0A9F739
:10168000EACFB4E0A6959795879577956795BA9533
:10169000C9F700976105710508959B01AC010A2EF9
:1016A00006945795479537952795BA95C9F7620FD0
:1016B000731F841F951FA01D08952F923F924F9274
:1016C0005F926F927F928F929F92AF92BF92CF92D2
:1016D000DF92EF92FF920F931F93CF93DF93CDB7DB
:1016E000DEB7CA1BDB0B0FB6F894DEBF0FBECDBF53
:1016F00009942A88398848885F846E847D848C8424
:101700009B84AA84B984C884DF80EE80FD800C812C
:101710001B81AA81B981CE0FD11D0FB6F894DEBF0F
:0C1720000FBECDBFED010895F894FFCF7F
:10172C0002000100000000000000000000000300A7
:10173C0000000086088A080000000000020000007B
:10174C00004108000000004D61696E204D656E750A
:10175C00000000000000000000000000000000532A
:10176C00746172742067616D6500000000000000F8
:10177C0000000000000000460600004F7074696F06
:10178C006E7300000000000000000000000000006C
:10179C00000000D606000000000000000000000061
:1017AC00000000000000000000000000000000002D
:1017BC00000000000000000000000000000000001D
:1017CC00000000000000000000000000000000020B
:1017DC0000494E2047414D4500000000000000002C
:1017EC00000000000000000000456E642067616D81
:1017FC006500000000000000000000000000000078
:10180C00009906000000000000000000000000002D
:10181C0000000000000000000000000000000000BC
:10182C0000000000000000000000000000000000AC
:10183C00000000000000000000000000000000009C
:10184C00000000000000000000000000000000008C
:10185C0000000000000000000001004F5054494FF0
:10186C004E530000000000000000000000000000CB
:10187C00000000496E6372656D656E742031000066
:10188C000000000000000000000000F20600004410
:10189C00656372656D656E74203100000000000098
:1018AC0000000000000000030700004261636B00B1
:1018BC00000000000000000000000000000000001C
:1018CC000000008A0600000000000000000000007C
:1018DC0000000000000000000000000000000000FC
:1018EC0000000003000300010000000000000000E5
:1018FC00056572726F720042756666657230206E95
:10190C006F7420617661696C61626C650D0A0052BE
:10191C0058302046756C6C0D0A00525831204675B3
:10192C006C6C0D0A0054583020427573790D0A0006
:10193C0054583020456D7074790D0A0050726F67E1
:10194C0072616D20696E697469616C697A65640D88
:10195C000A004D435032353135206973204E4F54B7
:10196C0020696E20636F6E66696775726174696F4A
:10197C006E206D6F6465206166746572207265738C
:10198C006574210D0A005265636569766520627580
:10199C0066666572203020636F6E66696720696EBB
:1019AC00636F7272656374210D0A00526563656919
:1019BC00766520627566666572203120636F6E668F
:1019CC00696720696E636F7272656374210D0A001A
:1019DC00496E7465727275707420636F6E66696798
:1019EC0020696E636F7272656374210D0A00204268
:1019FC00525020696E636F7272656374210D0A0018
:101A0C0020434E463220696E636F72726563742197
:101A1C000D0A00204D435032353135206973204E6C
:101A2C004F5420696E204E6F726D616C206D6F6427
:101A3C0065210D0A00526967687420627574746FB1
:101A4C006E20707265737365640D0A004A6F79734A
:101A5C007469636B20627574746F6E207072657339
:101A6C007365640D0A0053636F72653A2000476F0B
:0C1A7C00616C206C696D69743A200000F8
:00000001FF
