:100000000C9426010C949E030C9437050C948005E7
:100010000C9443010C9443010C9443010C94DD03B4
:100020000C9443010C9443010C9443010C94430140
:100030000C9443010C9443010C9443010C94430130
:100040000C9443010C9443010C9443010C94430120
:100050000C9443010C9443010C9443010C94430110
:100060000C9443010C9443010C9443010C94430100
:10007000000000000000005F0000000700070014FF
:100080007F147F14242A7F2A1223130864623649BE
:100090005522500005030000001C224100004122AF
:1000A0001C00082A1C2A0808083E080800503000D6
:1000B000000808080808006060000020100804021A
:1000C0003E5149453E00427F400042615149462130
:1000D00041454B311814127F1027454545393C4A9C
:1000E00049493001710905033649494936064949EC
:1000F000291E003636000000563600000008142283
:100100004114141414144122140800020151090668
:10011000324979413E7E1111117E7F494949363E6F
:10012000414141227F4141221C7F494949417F0988
:100130000901013E414151327F0808087F00417F9B
:1001400041002040413F017F081422417F40404050
:10015000407F0204027F7F0408107F3E4141413E00
:100160007F090909063E4151215E7F09192946464A
:100170004949493101017F01013F4040403F1F2073
:1001800040201F7F2018207F631408146303047825
:100190000403615149454300007F414102040810B6
:1001A0002041417F000004020102044040404040E1
:1001B000000102040020545454787F4844443838E5
:1001C00044444420384444487F3854545418087EEA
:1001D000090102081454543C7F0804047800447D4B
:1001E00040002040443D00007F10284400417F40F3
:1001F000007C041804787C080404783844444438AB
:100200007C14141408081414187C7C08040408488E
:1002100054545420043F4440203C4040207C1C2047
:1002200040201C3C4030403C44281028440C505096
:10023000503C4464544C44000836410000007F00A8
:1002400000004136080002010302010011241FBE14
:10025000CFEFD4E0DEBFCDBF14E0A0E0B1E0E6EB2D
:10026000F5E102C005900D92AA35B107D9F724E057
:10027000AAE5B4E001C01D92AB36B207E1F70E94D7
:100280003E040C94D90A0C94000081B3806281BBB7
:100290008EB580618EBD8EB588608EBD8FB5826053
:1002A0008FBD8FB581608FBD8FB58F778FBD8FB5B7
:1002B00080648FBD8FB58F7D8FBD8FB58F7E8FBDD5
:1002C0008EB58B7F8EBD8EB58D7F8EBD8EB58160D8
:1002D0008EBD8FB5877F8FBD8FB58B7F8FBD089506
:1002E0006091610470916204809163040895CF93DA
:1002F000DF9300D000D0CDB7DEB719821A821B82FF
:100300001C821092001491E39A95F1F7000020E00E
:1003100030E00CC0F901FC5E9081E1E0F0E0EC0F10
:10032000FD1FE20FF31F90832F5F3F4F24303105F5
:1003300088F3E1E0F0E0EC0FFD1FE80FF11D808194
:100340000F900F900F900F90DF91CF91089583E061
:100350000E94770180935B0482E00E947701809382
:100360005A0408958617A0F0462F50E0282F30E059
:10037000241B350B64E6629FC001639F900D11241E
:100380006FEF70E0641B750B0E94D307862F0895F2
:1003900070E0282F30E0261B370B44E6429FC00157
:1003A000439F900D11240E94D307862F0895CF9369
:1003B000DF93C0915B0483E00E9477016C2F0E9461
:1003C000B201C82FD0915A0482E00E9477016D2FAC
:1003D0000E94B201982F8C2FDF91CF910895282F82
:1003E0008A5B8D3848F4892F9A5B9D38D8F0873422
:1003F000DCF48634DCF015C027344CF0892F9A5B8E
:100400009D38B0F08734B4F48634B4F00AC0263492
:1004100044F4892F9A5B9D3888F087348CF48634B5
:100420008CF0089584E0089582E0089583E00895B3
:1004300081E0089585E0089587E0089580E00895BB
:1004400086E0089588E00895CF93DF930E94D70156
:10045000C82FD92F0E94EF0190916304891328C0FF
:10046000909161042C2F0C2E000C330B291B3109A9
:1004700097FD3395A901332324F444275527421BC4
:10048000530B44305105A4F4909162042D2F0D2E8E
:10049000000C330B291B310997FD3395A901332338
:1004A00024F444275527421B530B4430510544F094
:1004B000C0936104D09362048093630481E001C01F
:1004C00080E0DF91CF9108950E94770124E6829F1A
:1004D000C00111246FEF70E00E94D307862F0895AA
:1004E00081E00E946402282F30E090916404291B6F
:1004F0003109A90122F444275527421B530B4330ED
:10050000510524F08093640481E0089580E008950B
:10051000809164040895CF9381B38B7F81BBF8945D
:100520008BB780648BBF85B7826085BF85B78E7FB0
:1005300085BF78940E949A04C82F882334F485ECF0
:1005400092E00E94D3058C2F01C080E0CF910895E6
:10055000EF92FF920F931F93CF93DF93CDB7DEB748
:100560002B970FB6F894DEBF0FBECDBFE982FA829B
:100570000B831C832D833E834F83588769877A873B
:100580008B8789819A81BC01687F777076956795A2
:100590007695679576956795182F1295110F107EB1
:1005A00081E30E945504612F82E30E9455041B8160
:1005B000612F85E30E94550480E30E94430483FD7C
:1005C0001AC0193010F088E08B8310E00CC0E4E012
:1005D000F0E0EC0FFD1FE10FF11D608186E3810F5C
:1005E0000E9455041F5F8B81181788F381E80E94D1
:1005F0006B0480E005C08BEC92E00E94D3058FEF86
:100600002B960FB6F894DEBF0FBECDBFDF91CF9112
:100610001F910F91FF90EF900895CF92DF92EF928C
:10062000FF921F93CF93DF9300D0CDB7DEB76C015D
:1006300061113DC081E60E944304182F82E60E94AA
:100640004304282F229526952770812F90E0880F4C
:10065000991F880F991F880F991F822BF60191838C
:10066000808385E60E9443048F70F601828389307F
:1006700010F088E0828310E012C0E12EF12C86E6B3
:10068000810F0E944304F601EE0DFF1D838390E06D
:100690009A838983CE0101960E94D3051F5FF601DC
:1006A0008281181750F38EE494E00E94D305C601AE
:1006B0000F900F90DF91CF911F91FF90EF90DF90FF
:1006C000CF9008951F93CF93DF93CDB7DEB72B97CD
:1006D0000FB6F894DEBF0FBECDBF182F80FF09C044
:1006E00060E0CE0101960E940D0383EE92E00E942D
:1006F000D30511FF09C061E0CE0101960E940D03F0
:100700008EEE92E00E94D30512FF04C089EF92E0C2
:100710000E94D30513FF04C084E093E00E94D30538
:1007200060E08CE20E9455042B960FB6F894DEBF71
:100730000FBECDBFDF91CF911F9108951F920F92F1
:100740000FB60F9211242F933F934F935F936F93A4
:100750007F938F939F93AF93BF93EF93FF930E94E9
:1007600029050E946203FF91EF91BF91AF919F9184
:100770008F917F916F915F914F913F912F910F904A
:100780000FBE0F901F9018958FE190E00E94C40754
:100790000E94BD070E9445010E94A8050E94A70172
:1007A0000E942F070E94E7060E948B020E94E0052C
:1007B00080E193E00E94D30508951F920F920FB637
:1007C0000F921124DF92EF92FF920F931F932F93BA
:1007D0003F934F935F936F937F938F939F93AF93C9
:1007E000BF93EF93FF93CF93DF93CDB7DEB72B97F4
:1007F000DEBFCDBF0E942402811104C00E9470029E
:100800008823F1F00E947001162FD82E0E948802D2
:10081000FE0131969BE0DF011D929A95E9F791E088
:10082000E92EF12C03E0282F3D2D4F815885698555
:100830007A858B850E94A80286E293E00E94D30508
:100840002B960FB6F894DEBF0FBECDBFDF91CF91D0
:10085000FF91EF91BF91AF919F918F917F916F9198
:100860005F914F913F912F911F910F91FF90EF90CA
:10087000DF900F900FBE0F901F9018950E94C40339
:100880000E949C06FDCFCF93C82F88B38F7E88BB74
:1008900083E00E94B5078C2F0E94B5070E94B8071D
:1008A00098B3906198BBCF910895CF93DF93D82FE1
:1008B000C62F88B38F7E88BB82E00E94B5078D2F3C
:1008C0000E94B5078C2F0E94B50788B3806188BB52
:1008D000DF91CF91089598B39F7E98BB0E94B50792
:1008E00088B3806188BB08951F93CF93DF93182F3F
:1008F000D62FC42F88B38F7E88BB85E00E94B507B2
:10090000812F0E94B5078D2F0E94B5078C2F0E9462
:10091000B50788B3806188BBDF91CF911F9108959F
:1009200088B38F7E88BB80EC0E94B50788B3806156
:1009300088BB0895CF93DF930E94A2070E94900482
:100940008EE00E944304807E803831F086E393E09D
:100950000E94D3058FEF7AC067E08DE00E945504B6
:1009600040E660E680E60E94740480E60E9443044C
:10097000803631F08AE693E00E94D3058EEF66C0A0
:1009800040E660E680E70E94740480E70E9443042A
:10099000C82FD0E0CE010E94D305C036D10531F07A
:1009A0008FE893E00E94D3058DEF50C045E06FEFD4
:1009B0008BE20E9474048BE20E944304853031F084
:1009C00084EB93E00E94D3058CEF40C043E063E0EA
:1009D0008AE20E9474048AE20E944304833031F068
:1009E00082ED93E00E94D3058BEF30C041EB61EBC9
:1009F00089E20E94740489E20E944304813B31F041
:100A000084EE93E00E94D3058AEF20C045E065E0C4
:100A100088E20E94740488E20E944304853031F029
:100A200084EE93E00E94D30589EF10C060E08FE070
:100A30000E9455048EE00E944304807E31F087EFCF
:100A400093E00E94D30588EF01C080E0DF91CF9151
:100A5000089588B38F7E88BB80EA0E94B5070E9404
:100A6000B8070E94B80798B3906198BB08951F9289
:100A70000F920FB60F921124EF92FF920F931F93D4
:100A80002F933F934F935F936F937F938F939F9396
:100A9000AF93BF93EF93FF9389E194E00E94D30556
:100AA000E0E0F1E081E0182F8383282F8483E09039
:100AB0000001F09001010091020130910501409187
:100AC0000601509107016091080170910901809120
:100AD0000A010E94A802FF91EF91BF91AF919F91EF
:100AE0008F917F916F915F914F913F912F911F91C6
:100AF0000F91FF90EF900F900FBE0F901F901895E1
:100B00001F920F920FB60F9211242F933F934F9382
:100B10005F936F937F938F939F93AF93BF93EF9365
:100B2000FF9380E394E00E94D3050E94B606FF91F4
:100B3000EF91BF91AF919F918F917F916F915F9155
:100B40004F913F912F910F900FBE0F901F901895CE
:100B500081B3877F81BB86B18E7F86B9F8948BB7CE
:100B600080688BBF85B7886085BF85B7846085BF87
:100B70008BB78E7F8BBF86B78E7F86BF8AB780622A
:100B80008ABF8BB780628BBF7894089529E131E0EA
:100B900030936804209367049F938F930E94FB0710
:100BA0000F900F9008952BE031E03093680420936C
:100BB00067049F938F930E94FB070F900F900895F7
:100BC00080E480938B008DE080938A0080E18093A5
:100BD0007D0084ED91E090938700809386000895D6
:100BE0008AE494E00E94D305089581E594E00E9490
:100BF000D305089588E10E941C0788E10E941C0724
:100C00008EE70E941C078CE30E941C0788E10E946B
:100C10001C0708951F93CF93DF93C0915D04D0917B
:100C20005E040E941F0780E00E94020788E20E9483
:100C30000607CE010E94C60510E013C04CE1489F94
:100C4000E001499FD00D11246896C20FD31F1F5F8A
:100C5000812F0E94020788E00E940607CE010E94B1
:100C6000C605812F90E020915D0430915E04F9016A
:100C7000E857FF4F4081518184179507FCF260E0EF
:100C800081E00E9413070E94FA0581E080935F04CF
:100C9000DF91CF911F91089590935E0480935D043E
:100CA000FC01E857FF4F8081809360040E940A0690
:100CB0000895CF93C0E004C080E00E941C07CF5F7E
:100CC000C530D0F3CF91089580915F048230B8F0A1
:100CD00090916004981798F00E94020780E00E94AB
:100CE00006070E94590680915F04815080935F043B
:100CF0000E94020780E00E9406070E94FA050895FC
:100D000080915F048823B9F090916004891798F46A
:100D10000E94020780E00E9406070E945906809107
:100D20005F048F5F80935F040E94020780E00E944F
:100D300006070E94FA050895CF930E94D7010E94EA
:100D4000EF01C82F833039F480915C04C81719F083
:100D50000E94800607C0C23029F480915C04C81349
:100D60000E946406C0935C04CF910895CF93DF93F3
:100D7000CDB7DEB76C970FB6F894DEBF0FBECDBF10
:100D8000E0915D04F0915E0420915F0430E0215019
:100D900031094CE1429FC001439F900D1124E80F9F
:100DA000F91F78968CE1DE01119601900D928A95DB
:100DB000E1F7E98DFA8D8B8D9C8D09956C960FB6B8
:100DC000F894DEBF0FBECDBFDF91CF910895E7E26B
:100DD000F1E081EB91E093AB82AB8BE392E09093F7
:100DE000760180937501F0930002E093FF01F09388
:100DF0008A02E0938902CF010E944C0608958093F5
:100E00000010089580550E94FF060895CF93C82FC3
:100E1000C295CF708F700E94FF068C2F80610E9458
:100E2000FF06CF910895CF93C62F0E9402078C2F03
:100E30000E940607CF910895809300120895CF93E2
:100E4000DF93C0E0D0E004C080E00E941C07219640
:100E5000C11584E0D807C0F3DF91CF9108958EEAE1
:100E60000E94FF0681EA0E94FF068AED0E94FF06AB
:100E700082E10E94FF0688EC0E94FF0688EA0E9439
:100E8000FF068FE30E94FF0685ED0E94FF0680E8C3
:100E90000E94FF0681E80E94FF068FEF0E94FF0676
:100EA00089ED0E94FF0681E20E94FF0680E20E9417
:100EB000FF0680E00E94FF068BED0E94FF0680E3A4
:100EC0000E94FF068DEA0E94FF0680E00E94FF0656
:100ED00084EA0E94FF0686EA0E94FF068FEA0E94CB
:100EE000FF0681E20E94FF0680E00E94FF068FEF6E
:100EF0000E94FF0682E20E94FF0680E00E94FF0639
:100F00008FEF0E94FF060E941F070895CF93DF9383
:100F1000D0EED80FC0E011C08D2F90E0FC01EE0F95
:100F2000FF1FEE0FFF1FE80FF91FEC0FF11DE05937
:100F3000FF4F84910E941C07CF5FC53068F3DF919B
:100F4000CF91089587B3806187BB87B3806287BBE9
:100F500087B3806887BB81E58DB988B3806188BB22
:100F600008958FB9779BFECF08950E94B107089529
:100F700084EF0E94B1078FB1089585B7806885BF5F
:100F800080B7806280BF089590BD89B988E18AB931
:100F90008EE880BD08955D9BFECF8CB908955F9B60
:100FA000FECF8CB1089597FB072E16F4009407D05E
:100FB00077FD09D00E94E70707FC05D03EF4909525
:100FC00081959F4F0895709561957F4F0895AA1B55
:100FD000BB1B51E107C0AA1FBB1FA617B70710F024
:100FE000A61BB70B881F991F5A95A9F78095909556
:100FF000BC01CD010895A0E0B0E0E1E0F8E00C9480
:10100000B20AAE014B5F5F4FFA0161917191AF017E
:1010100080916704909168040E941108E2E00C94AA
:10102000CE0AABE0B0E0E7E1F8E00C94A20A6C0174
:101030007B018A01FC0117821682838181FFCCC16A
:10104000CE0101963C01F6019381F70193FD859154
:1010500093FF81917F01882309F4BAC1853239F465
:1010600093FD859193FF81917F01853229F4B6012B
:1010700090E00E94080AE7CF912C212C312CFFE14F
:10108000F315D8F08B3279F038F4803279F083326E
:10109000A1F4232D20611DC08D3261F0803369F4ED
:1010A000232D216016C0832D8260382EE32DE4604D
:1010B0003E2E2AC0F32DF8601DC037FC2DC020ED58
:1010C000280F2A3040F08E32B9F436FC81C1232D2E
:1010D0002064322E19C036FE06C08AE0989E200D8C
:1010E0001124922E11C0EAE02E9E200D1124222EF2
:1010F000F32DF0623F2E08C08C3621F4832D8068DA
:10110000382E02C0883641F4F70193FD859193FF94
:1011100081917F018111B3CF982F9F7D955493309A
:1011200028F40C5F1F4F9FE399830DC0833631F085
:10113000833771F0833509F059C021C0F8018081EF
:1011400089830E5F1F4F88248394912C530113C011
:101150002801F2E04F0E511CF801A080B18036FE4C
:1011600003C0692D70E002C06FEF7FEFC5010E94E0
:10117000FD094C018201F32DFF773F2E16C0280197
:1011800022E0420E511CF801A080B18036FE03C05F
:10119000692D70E002C06FEF7FEFC5010E94F20978
:1011A0004C01F32DF0683F2E820133FC1BC0822DD1
:1011B00090E088169906B0F4B60180E290E00E94B3
:1011C000080A2A94F4CFF50137FC859137FE819106
:1011D0005F01B60190E00E94080A21102A9421E0E4
:1011E000821A91088114910471F7E8C0843611F0D5
:1011F000893641F5F80137FE07C06081718182812F
:1012000093810C5F1F4F08C060817181072E000C15
:10121000880B990B0E5F1F4FF32DFF763F2E97FF24
:1012200009C090958095709561957F4F8F4F9F4F26
:10123000F0683F2E2AE030E0A3010E94440A882E85
:10124000861845C0853731F4232D2F7EB22E2AE033
:1012500030E025C0932D997FB92E8F36C1F018F458
:10126000883579F0B5C0803719F0883721F0B0C0E3
:10127000E92FE061BE2EB4FE0DC0FB2DF460BF2E41
:1012800009C034FE0AC0292F2660B22E06C028E00D
:1012900030E005C020E130E002C020E132E0F8019A
:1012A000B7FE07C060817181828193810C5F1F4FFF
:1012B00006C06081718180E090E00E5F1F4FA30146
:1012C0000E94440A882E8618FB2DFF773F2E36FE9B
:1012D0000DC0232D2E7FA22E891458F434FE0BC08E
:1012E00032FC09C0832D8E7EA82E05C0B82CA32CFD
:1012F00003C0B82C01C0B92CA4FE0FC0FE01E80D3C
:10130000F11D8081803321F49A2D997EA92E09C088
:10131000A2FE06C0B394B39404C08A2D867809F067
:10132000B394A3FC11C0A0FE06C0B21488F4280C2C
:10133000922C9B180EC0B21460F4B60180E290E0CB
:101340000E94080AB394F7CFB21418F42B1802C005
:10135000982C212CA4FE10C0B60180E390E00E94DE
:10136000080AA2FE17C0A1FC03C088E790E002C0F3
:1013700088E590E0B6010CC08A2D867859F0A1FE70
:1013800002C08BE201C080E2A7FC8DE2B60190E0D2
:101390000E94080A891438F4B60180E390E00E94A4
:1013A000080A9A94F7CF8A94F301E80DF11D808121
:1013B000B60190E00E94080A8110F5CF222009F4BE
:1013C00042CEB60180E290E00E94080A2A94F6CF4D
:1013D000F6018681978102C08FEF9FEF2B96E2E1A5
:1013E0000C94BE0AFC010590615070400110D8F7C2
:1013F000809590958E0F9F1F0895FC01615070405D
:1014000001900110D8F7809590958E0F9F1F089539
:101410000F931F93CF93DF93FB01238121FD03C023
:101420008FEF9FEF2CC022FF16C046815781248189
:1014300035814217530744F4A081B1819D012F5F8C
:101440003F4F318320838C93268137812F5F3F4F1D
:101450003783268314C08B01EC01FB010084F185E6
:10146000E02D0995892BE1F6D80116968D919C9176
:101470001797019617969C938E931697CE01DF913E
:10148000CF911F910F910895FA01AA27283051F1A9
:10149000203181F1E8946F936E7F6E5F7F4F8F4FA5
:1014A0009F4FAF4FB1E03ED0B4E03CD0670F781F04
:1014B000891F9A1FA11D680F791F8A1F911DA11DE9
:1014C0006A0F711D811D911DA11D20D009F4689422
:1014D0003F912AE0269F11243019305D3193DEF6CA
:1014E000CF010895462F4770405D4193B3E00FD080
:1014F000C9F7F6CF462F4F70405D4A3318F0495D6B
:1015000031FD4052419302D0A9F7EACFB4E0A6954D
:101510009795879577956795BA95C9F7009761056F
:10152000710508959B01AC010A2E069457954795C5
:1015300037952795BA95C9F7620F731F841F951FBA
:10154000A01D08952F923F924F925F926F927F92CB
:101550008F929F92AF92BF92CF92DF92EF92FF92C3
:101560000F931F93CF93DF93CDB7DEB7CA1BDB0B6F
:101570000FB6F894DEBF0FBECDBF09942A88398814
:1015800048885F846E847D848C849B84AA84B9841B
:10159000C884DF80EE80FD800C811B81AA81B98127
:1015A000CE0FD11D0FB6F894DEBF0FBECDBFED013B
:0615B0000895F894FFCF3E
:1015B600020002000000000000000000000003001E
:1015C600000000CB07CF070000000000020000006B
:1015D600008607000000004D61696E204D656E753E
:1015E60000000000000000000000000000000053A2
:1015F6007562204D656E7520310000000000000008
:10160600000000000000004C060000537562204DEB
:10161600656E75203200000000000000000000002A
:101626000000004C06000000000000000000000062
:1016360000000000000000000000000000000000A4
:101646000000000000000000000000000000000094
:101656000000000000000000000000000000000282
:1016660000537562204D656E752031000000000044
:10167600000000000000000000416374696F6E20E6
:101686003100000000000000000000000000000023
:1016960000F00500004261636B00000000000000DE
:1016A600000000000000000000000000004C0600E2
:1016B6000000000000000000000000000000000024
:1016C6000000000000000000000000000000000014
:1016D6000000000000000000000000000000000004
:1016E6000000000000000000000200537562204D5B
:1016F600656E75203200000000000000000000004A
:10170600000000416374696F6E2031000000000024
:101716000000000000000000000000F50500004287
:1017260061636B0000000000000000000000000084
:10173600000000000000004C060000000000000051
:101746000000000000000000000000000000000093
:101756000000000000000000000000000000000083
:101766000000000000000000000000000000000073
:1017760000000002006572726F720042756666654F
:101786007230206E6F7420617661696C61626C657F
:101796000D0A005258302046756C6C0D0A005258DE
:1017A600312046756C6C0D0A005458302042757312
:1017B600790D0A0054583020456D7074790D0A0071
:1017C60050726F6772616D20696E697469616C69C8
:1017D6007A65640D0A004A6F79737469636B2073C6
:1017E600656E740A0D004D435032353135206973EC
:1017F600204E4F5420696E20636F6E66696775725E
:101806006174696F6E206D6F6465206166746572C0
:10181600207265736574210D0A00526563656976E9
:101826006520627566666572203020636F6E666934
:101836006720696E636F7272656374210D0A0052C8
:101846006563656976652062756666657220312016
:10185600636F6E66696720696E636F727265637423
:10186600210D0A00496E7465727275707420636F7B
:101876006E66696720696E636F7272656374210DA7
:101886000A002042525020696E636F72726563745B
:10189600210D0A0020434E463220696E636F727234
:1018A600656374210D0A00204D43503235313520D1
:1018B6006973204E4F5420696E204E6F726D616CB5
:1018C600206D6F6465210D0A005269676874206295
:1018D6007574746F6E20707265737365640D0A009B
:1018E6004A6F79737469636B20627574746F6E20C6
:1018F600707265737365640D0A00686569200D0A68
:0A1906000068616C6C6F200D0A0090
:00000001FF
