S01C000074746B5F343135355F6279676765726E5F6C61622E73726563AC
S11300000C9438000C9455000C9499000C945500F1
S11300100C9455000C9455000C9455000C94550008
S11300200C9455000C9455000C9455000C945500F8
S11300300C9455000C9455000C9455000C945500E8
S11300400C9455000C9455000C9455000C945500D8
S11300500C9455000C9455000C9455000C945500C8
S11300600C9455000C9455000C9455000C945500B8
S113007011241FBECFEFD4E0DEBFCDBF11E0A0E05E
S1130080B1E0E6E5F5E002C005900D92AE31B107AE
S1130090D9F721E0AEE1B1E001C01D92A832B20768
S11300A0E1F70E9481000C94A9020C9400008FEFE8
S11300B081BB8EB580618EBD8EB588608EBD8FB5D7
S11300C082608FBD8FB581608FBD8FB58F778FBDF7
S11300D08FB580648FBD8FB58F7D8FBD8FB58F7EBB
S11300E08FBD8EB58B7F8EBD8EB58D7F8EBD8EB54B
S11300F081608EBD8FB5877F8FBD8FB58B7F8FBDA0
S113010008958FE190E00E94DD000E94CE000E94DD
S113011057000E94BF0086E091E00E9435012FEF56
S11301208FEF95E9215080409040E1F700C0000036
S1130130F2CF1F920F920FB60F9211242F933F9379
S11301404F935F936F937F938F939F93AF93BF93DB
S1130150EF93FF938AE091E00E943501FF91EF91C4
S1130160BF91AF919F918F917F916F915F914F91CB
S11301703F912F910F900FBE0F901F90189581B350
S1130180877F81BBF8948BB780688BBF85B7886005
S113019085BF85B78B7F85BF7894089585B78068C0
S11301A085BF80B7806280BF08955D9BFECF8CB908
S11301B008955F9BFECF8CB1089590BD89B988E105
S11301C08AB98EE880BD69ED70E085ED90E00E940B
S11301D0EA0008950F931F93CF93DF93009731F4B0
S11301E06115710519F480E090E03AC08B01EC01CF
S11301F06EE070E081E090E00E946501FC01892BD3
S113020091F380E883830115110571F01387028748
S113021081E8838380911E0190911F01892B21F431
S1130220F0931F01E0931E012097C9F0D187C08786
S11302308381826083838091200190912101892BA5
S113024071F4F0932101E0932001809122019091B7
S11302502301892B21F4F0932301E0932201CF01A0
S1130260DF91CF911F910F9108950F931F93CF9317
S1130270DF93E0912001F0912101238121FF1BC034
S11302808C01D0E0C0E0F80181918F0160912001E0
S113029070912101DB011896ED91FC911997882347
S11302A031F00995892B79F3DFEFCFEFECCF8AE0BA
S11302B00995892B19F08FEF9FEF02C08D2F9C2F8A
S11302C0DF91CF911F910F9108950F931F93CF93B7
S11302D0DF93869F8001879F100D969F100D112438
S11302E0C8010E948101EC01009729F0A80160E097
S11302F070E00E94A202CE01DF91CF911F910F9175
S113030008950F931F93CF93DF938230910510F4D8
S113031082E090E0E0912601F091270120E030E0B6
S1130320A0E0B0E0309719F140815181028113813E
S113033048175907C8F08417950769F4109731F0E6
S113034012960C93129713961C9327C000932601C0
S11303501093270122C02115310519F042175307C4
S113036018F49A01BD01EF01DF01F801DBCF21157B
S11303703105F9F0281B390B2430310580F48A81CA
S11303809B816115710521F0FB019383828304C075
S11303909093270180932601FE01329644C0FE010A
S11303A0E20FF31F819391932250310939832883FB
S11303B03AC02091240130912501232B41F420914E
S11303C002013091030130932501209324012091EF
S11303D00001309101012115310541F42DB73EB7DB
S11303E04091040150910501241B350BE091240137
S11303F0F0912501E217F307A0F42E1B3F0B2817F9
S1130400390778F0AC014E5F5F4F2417350748F089
S11304104E0F5F1F509325014093240181939193C4
S113042002C0E0E0F0E0CF01DF91CF911F910F9186
S11304300895CF93DF93009709F481C0FC013297AC
S113044013821282A0912601B0912701109781F4A2
S113045020813181820F931F209124013091250145
S11304602817390751F5F0932501E093240167C05B
S1130470ED0120E030E0CE17DF0740F44A815B81D4
S11304809E0141155105F1F0EA01F5CFD383C283F2
S113049040815181840F951FC817D90759F4888169
S11304A09981840F951F0296918380838A819B8111
S11304B0938382832115310529F4F0932701E09376
S11304C026013DC0E901FB83EA8349915991C40F98
S11304D0D51FEC17FD0761F480819181840F951F6E
S11304E00296E90199838883828193819B838A831D
S11304F0E0E0F0E012968D919C911397009719F02B
S1130500FD01DC01F7CF8D919C9111979D012E5F28
S11305103F4F820F931F209124013091250128170A
S1130520390769F4309729F41092270110922601B3
S113053002C013821282B0932501A0932401DF919B
S1130540CF910895DC0101C06D9341505040E0F714
S10905500895F894FFCFAA
S11305560000280120006F6B0D004861617661720E
S111056664206C696B6572206B616B650D001F
S9030000FC
