S01D000054544B343135355F6279676765726E5F6E6F6465322E73726563C1
S21408000008090020D9040800D5040800D50408000B
S214080010D5040800D5040800D50408000000000030
S214080020000000000000000000000000D5040800E2
S214080030D504080000000000D5040800D504080010
S214080040D5040800D5040800D5040800D50408001F
S214080050D5040800D5040800D5040800D50408000F
S214080060350E0800D504080000000000D504080076
S214080070D5040800D5040800D504080000000000D0
S21408008000000000D5040800D5040800D5040800C0
S214080090D5040800D5040800D5040800D5040800CF
S2140800A0D504080000000000D5040800690608000A
S2140800B0D5040800D5040800D5040800D5040800AF
S2140800C0D5040800D5040800D5040800D50408009F
S2140800D0D5040800D5040800D5040800D50408008F
S2140800E0D5040800D5040800D5040800F103080064
S2140800F0D504080010B5054C237833B9044B13B162
S2140801000448AFF300800123237010BD3C04002090
S21408011000000000A01008000C4B43B10C4810B5B6
S2140801200C49AFF300800C48036823B910BD0A4891
S214080130036833B97047094B002BF7D0BDE8104069
S2140801401847064B002BF5D0184700BF00000000E4
S214080150A010080040040020A010080000000000BE
S2140801600022014B1A70704758040020084AD2F83B
S214080170003143F02003C2F80031064B1A6942F0FA
S21408018080021A615A6842F080025A60704700BFBF
S21408019000060E4000000C40014BD86E704700BFAA
S2140801A000000C4008B50D4B98470D4B186040F200
S2140801B0DB53984208D80B4B1A6840F2DB539A4236
S2140801C002D9094B1B781BB1064B1860002008BDE6
S2140801D0044B18600120044B187008BD99010800EC
S2140801E0600400205C04002058040020F0B457186F
S2140801F0082FD4BF00230123082998BF082A5CD8F3
S2140802000D46002B59D12E4A136823F001031360BC
S21408021013692C4B4FF440745C641C6F24F0030481
S2140802201C6703245C605C66A3F50063264CC3F871
S2140802300C41D3F8004144F40064C3F8004150610F
S214080240002419E01E4801F110035B01C2180026BD
S214080250566000EB41124FF00056C2F808624FF0A5
S2140802608076C650D2F81C3243F40003C2F81C321B
S21408027001238B401C430131B942E3DD00230DE026
S2140802800F4901EB43124FF00050C2F8080203F181
S214080290100252014FF0407088500133AB42EFDB3A
S2140802A0074B5C604FF40061084A51601A6842F0D8
S2140802B001021A600020F0BC70470120FBE700BF6F
S2140802C000400B40000E0E402B10001000E100E02E
S2140802D008B502220121014B984708BDED01080028
S2140802E04B0103F1402303F53023D3F8103213F4FF
S2140802F0000F36D003881C4A02EA834242F00052B6
S2140803004B0103F1402303F53023C3F80822837812
S214080310082B01D908238370827943791B0443EAA2
S2140803200263027943EA0223C2781343490101F1C2
S214080330402101F53021C1F81432827A437A1B0431
S21408034043EA0263027A43EA0223C2791343C1F8F6
S214080350183283781B0443F40003C1F81C320020CB
S21408036070470120704700BF0000FC1F4B0103F1D7
S214080370402303F53023D3F8103213F4000F33D09C
S21408038070B44B0103F1402303F53023D3F814422D
S214080390D3F81822D3F80852C5F38A450580D3F84F
S2140803A01052C5F303458570002303E0C618F270A3
S2140803B0120A0133AB4205DA032BF7DCC618F470D1
S2140803C0240AF6E7094B01F1100252014FF080703B
S2140803D0985003EB4111D1F81C3243F40003C1F8DE
S2140803E01C32002070BC70470120704700400B404C
S2140803F070B584B0264B1C6914F0060F3AD014F07A
S214080400020F15D114F0040F17D0022101A8214BB2
S2140804109847BDF80450E9B201391F484B000B4411
S2140804209A00831885529DF806509D70002214E0A5
S214080430012101A8174B9847EBE71848184B98472F
S214080440E7E704AB134413F8096C01EB4103980083
S214080450114B03441344DE70013201EB410398004C
S2140804600D4B03449B789A42EBDB002300E00133F4
S214080470AB42FCDB14F0010F02D00122044B9A6059
S2140804804FF40062074BC3F8842104B070BD00BF68
S21408049000400B406D030800640400200C100800A0
S2140804A0850D080000E100E010B401EB41018C0066
S2140804B0044B23441C6859689B6804604160836049
S2140804C010BC7047640400200022014BDA737047A2
S2140804D064040020FEE7000008B5114B114A9A4252
S2140804E009D00F4B0F4A03E0116819600433043231
S2140804F00D498B42F8D30D4B02E000221A600433F4
S2140805000B4A9342F9D30B4B23F0604323F07F0347
S214080510094A9360094B9847094B9847FEE700BF7E
S21408052000000020A01008003C0400203C04002026
S214080530080500200000080000ED00E09D0E0800F9
S2140805407D0608004FF48063204A136002F50072A7
S21408055013601F4B1B6A13F0807F07D11D4A1C4B84
S2140805601A621B4B9B6E13F0010FFAD01A4A184BEF
S2140805701A62174B9B6E13F4803FFAD0144A136B1B
S21408058023F0030343F001031363114B9B6E13F030
S214080590080FFAD0114A0E4B9A620D4B9B6E13F059
S2140805A0020FFAD011220A4B1A63094B9B6E13F0FE
S2140805B0080FFAD01222064B1A63054B9B6E13F0EF
S2140805C0080FFAD0064A074B1A607047000A0E4012
S2140805D000060E400908370009083701013F0D20BC
S2140805E000BD01050000002010B5104B9847104BC1
S2140805F09847104B98471048104B9847104B984709
S214080600104B9847104B9847104B9847104B402272
S214080610002110460F4CA0474FF400420E4B5A607C
S2140806200E4B98470E480F4B984710BD45050800D7
S214080630750A0800A90D080065012900D1020800FE
S214080640A50908006D01080035080800410A0800D9
S2140806508C040020E9080800501A0E40C50A080055
S21408066038100800850D08000122024B1A70024B4C
S2140806701B6A7047880400200000084010B58AB03E
S214080680244B98470020244B984721E0234B984753
S214080690234B9847234B984733E020461E4B9847F2
S2140806A09DF8142040F27D5303FB02F31E4C84FB96
S2140806B00324DB17C3EB64141C4B98471C4A0146FB
S2140806C020B21C4B98471C4B984700221B4B1A70AD
S2140806D0022101A81A4B98479DF80730002BF7D03F
S2140806E0164B1B78002BF3D0002104A8144CA04707
S2140806F0012107A8A0479DF913409DF81F30012B3C
S214080700C4D0104B98470028C7D000210E480F4B7E
S2140807109847C2E7E9050800050A0800550A0800D0
S214080720C9040800610108001F85EB51510708003D
S2140807308C04002011090800990708008804002086
S214080740A9040800A501080004000020E10208002A
S2140807502DE9F8430D4D01266E634FF00409C5F8E0
S21408076034901420DFF82C80C047094FFC6B04F443
S214080770FF74C5F830901420C047F86BE40124B223
S214080780C0F347002E632043BDE8F88300140E40EC
S21408079000120E40D10A080010B44FF47A7303FB17
S2140807A000F3194A82FB03121A44DB17C3EBA22391
S2140807B0002BB8BF5B4203F2DC5310F1050F04DBD5
S2140807C0052815DD01210C4601E0012100240F4A09
S2140807D04FF480305060136289B15CB14FF4806288
S2140807E00B4B1A634FF40072094B1A6310BC704720
S2140807F00021ECE74FF48062054B5A63F2E74FF4AA
S2140808000072034B5A63F1E7E75094BA00800C4035
S21408081000140E4038B5054D2846054CA047284616
S214080820A0472846A0472846A04738BD20A107006D
S214080830D10A080010B5254BD3F8002142F0400233
S214080840C3F800211A6942F400521A61204C236842
S21408085040F20760034323601E4A136843F4FF739D
S21408086013601D4B196941F002011961596841F47A
S21408087080715960596841F0807159602269024355
S21408088022615A6842F480325A601A6A42F41C623C
S21408089042F004021A62236B43F001032363236BBE
S2140808A043F002032363A0F684300C4B98470C4BA6
S2140808B09847636B43F0020363636420094B9847C9
S2140808C0236B43F00203236310BD00BF00060E40EF
S2140808D000140E4000120E4000800C4099070800D5
S2140808E015080800D10A080010B400245C601C80B3
S2140808F0188159819A81013047F6FF7292FBF0F011
S214080900D881013192FBF1F21A6110BC70470000E1
S21408091030B4401A84B225B2B2F90E309D4207DCD4
S2140809205B429D4225DB138903FB04F31BB201E0FF
S21408093047F6FF73506828441469A0421BDD5460CC
S21408094047F6FF75B2F90C00B2F90040641A00FBCE
S21408095004F000B211802B44C01818D4401140F29D
S2140809607D53984215DCA3F6FA23984213DA0B480F
S21408097011E00B4BDEE76442A04202DA5460084DF1
S214080980E0E75060B2F90A5005FB00F5DAE71F30D9
S214080990E4E740F27D5000B230BC704783FAFFFFB0
S2140809A00180FFFF144AD2F8003143F01003C2F862
S2140809B00031124B5A6842F400225A601A6F42F409
S2140809C000221A670E4BD3F8A02242F00702C3F89B
S2140809D0A022D3F8AC2242F4F66242F00102C3F831
S2140809E0AC22D3F8A42242F47672C3F8A4225A683A
S2140809F042F020025A60704700060E4000120E4071
S214080A0000400940642805DC10F1640F03DA6FF033
S214080A10630000E064204FF4A47303FB00F0064B69
S214080A2083FB0023C017C0EB631000F57670034BFA
S214080A30C3F8A802704700BF1F85EB510040094065
S214080A40034B4FF080621A601A611A661A63704781
S214080A5000100E4038B5054C4FF08065656342F6C9
S214080A60E060034B9847256338BD00BF00100E4072
S214080A70D10A080010B40F494FF0006008610E4B09
S214080A8001221A604FF480445C600C4CDC61102430
S214080A905C620B4C20604FF0805008611A6404209A
S214080AA018644FF000540C61C3F88020C3F8800027
S214080AB010BC704700060E400000084040D10C00ED
S214080AC000E100E00422014B1A607047000008406D
S214080AD0074B04221A64196D0B4601E0044B1B6D84
S214080AE05B1A2A2202FB00F29342F7D3704700BF34
S214080AF00000084008B5C8B2014B984708BD00BFBB
S214080B00110E08002DE9F04107460E46151E02DDB7
S214080B100A46002104E04FF020080EE001310132B9
S214080B2010780028FAD1A94201DA6D1A00E00025EB
S214080B3013F0020F06D14FF0200813F001040AD074
S214080B40002410E04FF03008F7E7414638460D4BD2
S214080B5098470134013D002DF7DC04E03846094B80
S214080B6098470134013631780029F7D105E0414627
S214080B703846044B98470134013D002DF7DC2046E3
S214080B80BDE8F081F50A0800F0B585B007460C9870
S214080B9051B11E460C4613B10A2A12D0002604ADDF
S214080BA0002305F8013D18E030238DF804300023B3
S214080BB08DF805300B9B0A9A01A938461B4CA047AE
S214080BC029E0002901DB0026E9E74C420126E6E792
S214080BD0303305F8013DB4FBF2F44CB1B4FBF2F344
S214080BE002FB1343092BF3DDA0F13A010B44EFE7B0
S214080BF056B10A9B1BB10B9B13F0020F0DD12D2388
S214080C0005F8013C013D00260B9B0A9A2946384602
S214080C10064CA047304405B0F0BD2D213846044B9D
S214080C2098470A9B013B0A93EEE700BF050B0800AE
S214080C30F50A0800F0B589B006460C460592002568
S214080C4081E0A21C01238BE0013443F002032278E2
S214080C50302AF9D0002206E002EB82025000A1F109
S214080C603002024401342178A1F13000C0B20928CC
S214080C70F2D9732918D0642922D078292FD0582978
S214080C803CD0752949D063295CD10599081D059083
S214080C9009788DF81C1000218DF81D1007A930461C
S214080CA0344FB84705444DE00599081D0590096876
S214080CB021B130462F4FB847054443E02E49F8E7A0
S214080CC00599081D05900968612002900193009215
S214080CD001230A223046294FB847054432E00599D1
S214080CE0081D059009686120029001930092002370
S214080CF010223046214FB847054423E00599081DC1
S214080D000590096841200290019300920023102262
S214080D1030461A4FB847054414E00599081D059053
S214080D200968612002900193009200230A22304647
S214080D30124FB847054405E0144621783046104B54
S214080D40984701350134237863B1252BF5D1621C09
S214080D5063783BB1252BEFD02D2B3FF472AF0023E1
S214080D60144674E716B1336800221A70284609B08C
S214080D70F0BD00BF050B080050100800890B0800DE
S214080D80F50A08000FB400B583B004AA52F8041B8D
S214080D9001920020034B984703B05DF804EB04B0BB
S214080DA0704700BF350C0800164B00221A705A70A0
S214080DB0154B4FF44071596459601A6F186F02400A
S214080DC022F440721A6759664FF48072A3F50063DE
S214080DD01A6103F50073AC21196040F223211962E9
S214080DE04FF40061596040F20221C3F820114FF019
S214080DF0FF31D960E121996004490A6050221A60DF
S214080E00704700BFA0040020000E0E4000E100E07E
S214080E10074B5B6913F0020F08D0054BD861044BEB
S214080E205B6913F4007FFAD00020704701207047F2
S214080E3000080E4008B5154B5B6913F0E00F03D0A9
S214080E404FF4A871114A116013F0010F12D0104820
S214080E504278531C594203F03F0301F03F0158BF44
S214080E604B4201788B4206D00849886908490A44EB
S214080E7090704B7008BD0748074B9847044B597845
S214080E80024A92690B449A7008BD00BF00080E40DB
S214080E90A004002058100800850D080070B50F4EF5
S214080EA00F4D761BB61018BF002405D0013455F830
S214080EB0043B9847A642F9D10A4E0B4D00F0DEF8DF
S214080EC0761BB61018BF002406D0013455F8043B2C
S214080ED09847A642F9D170BD70BD00BF88100800BB
S214080EE0881008009010080088100800024B13B1FC
S214080EF0024800F005B87047000000000D0F080013
S214080F00002301461A46184600F01EB838B50A4CA3
S214080F100A4D641BA4100AD004F18043013B05EB7C
S214080F208305013C55F804399847002CF9D1BDE8EB
S214080F30384000F0ADB800BFA01008009C100800AC
S214080F40704700BF704700BF2DE9F8432C4D064692
S214080F50286898460F469146FFF7F2FF294B1C680B
S214080F60D4F84831002B3ED05A681F2A1CDC02F100
S214080F70010E76B1012103EB8204C4F88890D3F8F9
S214080F80880191400843022EC3F88801C4F80881F6
S214080F9023D00232C3F804E0286843F82270FFF72B
S214080FA0D1FF0020BDE8F883174B0BB34FF4C87089
S214080FB0AFF300800346D8B10020D4F848114FF0AC
S214080FC0010E586019600246C4F84831C3F8880113
S214080FD0C3F88C01002EDCD0CCE7D3F88C01014393
S214080FE0C3F88C11D5E704F5A673C4F84831BBE7F7
S214080FF02868FFF7A7FF4FF0FF30BDE8F88300BF6B
S21408100038040020781008000000000043414E30E5
S214081010206D6573736167652061727269766564B1
S21408102020696E206E6F6E2D75736564206D61691C
S2140810306C626F780A0D000050726F6772616D20DF
S214081040696E697469616C697A65640A0D000000E6
S214081050286E756C6C2900004552523A205541524C
S2140810605420525820627566666572206973206639
S214081070756C6C0A0D00000010000020F8B500BF63
S214081080F8BC08BC9E467047ED0E0800190108001B
S214081090F8B500BFF8BC08BC9E467047F5000800C7
S2140810A000093D00030001010000000000000000E8
S2140810B000000000FC02002064030020CC0300208F
S2140810C00000000000000000000000000000000013
S2140810D00000000000000000000000000000000003
S2140810E000000000000000000000000000000000F3
S2140810F000000000000000000000000000000000E3
S21408110000000000000000000000000000000000D2
S21408111000000000000000000000000000000000C2
S21408112000000000000000000000000000000000B2
S21408113000000000000000000000000000000000A2
S2140811400000000000000000000000000000000092
S2140811500000000000000000010000000000000081
S2140811600E33CDAB34126DE6ECDE05000B00000046
S2140811700000000000000000000000000000000062
S2140811800000000000000000000000000000000052
S2140811900000000000000000000000000000000042
S2140811A00000000000000000000000000000000032
S2100814D00000000000000000E4040020FB
S804080000F3
