S01D000054544B343135355F6279676765726E5F6E6F6465322E73726563C1
S214080000E00800203D040800390408003904080008
S2140800103904080039040800390408000000000004
S214080020000000000000000000000000390408007E
S21408003039040800000000003904080039040800E4
S214080040390408003904080039040800390408008F
S214080050390408003904080039040800390408007F
S214080060890B08003904080000000000390408005D
S21408007039040800390408003904080000000000A4
S2140800800000000039040800390408003904080094
S214080090390408003904080039040800390408003F
S2140800A0390408000000000039040800D5050800D7
S2140800B0390408003904080039040800390408001F
S2140800C0390408003904080039040800390408000F
S2140800D039040800390408003904080039040800FF
S2140800E039040800390408003904080055030800D4
S2140800F03904080010B5054C237833B9044B13B1FE
S2140801000448AFF300800123237010BD3404002098
S21408011000000000380E08000C4B43B10C4810B520
S2140801200C49AFF300800C48036823B910BD0A4891
S214080130036833B97047094B002BF7D0BDE8104069
S2140801401847064B002BF5D0184700BF00000000E4
S214080150380E080038040020380E0800000000009A
S214080160084AD2F8003143F02003C2F80031064BA3
S2140801701A6942F080021A615A6842F080025A6090
S2140801800020704700060E4000000C40014BD86E59
S214080190704700BF00000C4008B50C4B98470C4B46
S2140801A01860B0F5FA7F04D20A4B1B68B3F5FA7FDD
S2140801B003D2084B1860002008BD064B1860064A94
S2140801C0137801331370012008BD00BF8D010800A5
S2140801D0580400205404002050040020F0B4571897
S2140801E0082FD4BF00230123082998BF082A5CD803
S2140801F00D46002B59D12E4A136823F001031360CD
S21408020013692C4B4FF440745C641C6F24F0030491
S2140802101C6703245C605C66A3F50063264CC3F881
S2140802200C41D3F8004144F40064C3F8004150611F
S214080230002419E01E4801F110035B01C2180026CD
S214080240566000EB41124FF00056C2F808624FF0B5
S2140802508076C650D2F81C3243F40003C2F81C322B
S21408026001238B401C430131B942E3DD00230DE036
S2140802700F4901EB43124FF00050C2F8080203F191
S214080280100252014FF0407088500133AB42EFDB4A
S214080290074B5C604FF40061084A51601A6842F0E8
S2140802A001021A600020F0BC70470120FBE700BF7F
S2140802B000400B40000E0E402B10001000E100E03E
S2140802C008B502220121014B984708BDDD01080048
S2140802D04B0103F1402303F53023D3F8103213F40F
S2140802E0000F33D070B44B0103F1402303F53023DD
S2140802F0D3F81442D3F81822D3F80852C5F38A451F
S2140803000580D3F81052C5F303458570002303E033
S214080310C618F270120A0133AB4205DA032BF7DC73
S214080320C618F470240AF6E7094B01F110025201C8
S2140803304FF08070985003EB4111D1F81C3243F40B
S2140803400003C1F81C32002070BC704701207047BB
S21408035000400B4070B584B0264B1C6914F0060F9D
S2140803603AD014F0020F15D114F0040F17D002215A
S21408037001A8214B9847BDF80450E9B201391F4837
S2140803804B000B449A00831885529DF806509D70C2
S214080390002214E0012101A8174B9847EBE71848FC
S2140803A0184B9847E7E704AB134413F8096C01EBBE
S2140803B041039800114B03441344DE70013201EBED
S2140803C0410398000D4B03449B789A42EBDB0023CD
S2140803D000E00133AB42FCDB14F0010F02D001222F
S2140803E0044B9A604FF40062074BC3F8842104B0AC
S2140803F070BD00BF00400B40D10208005C0400201E
S214080400600D0800D90A080000E100E010B401EB0E
S21408041041018C00044B23441C6859689B6804609F
S2140804204160836010BC70475C0400200022014BCA
S214080430DA7370475C040020FEE7000008B5114B2D
S214080440114A9A4209D00F4B0F4A03E01168196007
S214080450043304320D498B42F8D30D4B02E00022D8
S2140804601A6004330B4A9342F9D30B4B23F06043CC
S21408047023F07F03094A9360094B9847094B98472E
S214080480FEE700BF00000020380E080034040020F5
S21408049034040020DC0400200000080000ED00E022
S2140804A0F10B0800F10508004FF48063204A13603A
S2140804B002F5007213601F4B1B6A13F0807F07D18A
S2140804C01D4A1C4B1A621B4B9B6E13F0010FFAD089
S2140804D01A4A184B1A62174B9B6E13F4803FFAD0D1
S2140804E0144A136B23F0030343F001031363114B01
S2140804F09B6E13F0080FFAD0114A0E4B9A620D4BFA
S2140805009B6E13F0020FFAD011220A4B1A63094B9E
S2140805109B6E13F0080FFAD01222064B1A63054B8F
S2140805209B6E13F0080FFAD0064A074B1A607047FE
S214080530000A0E4000060E40090837000908370171
S214080540013F0D2000BD01050000002008B50D4B39
S21408055098470D4B98470D4B98470D480D4B9847B5
S2140805600D4B98470D4B98470D4B98470D4B9847A2
S2140805700D4B98474FF400420C4B5A600C480D4BF5
S214080580984708BDA904080081060800FD0A080067
S21408059065012900C1020800450708006101080036
S2140805A0B1060800F9070800E5070800501A0E40CB
S2140805B08C0D0800D90A080008B50348034B98476D
S2140805C0034B984708BD00BFA40D0800D90A0800C9
S2140805D02D04080008B50348034B9847034B1B6ACD
S2140805E008BD00BFB80D0800D90A0800000008407A
S2140805F010B586B0184B98470020184B984709E066
S214080600174B984718E09DF80400164B98470022A9
S214080610154B9A60144B1B6813F4803FFAD00121DF
S21408062003A8124CA04700216846A0479DF903403E
S2140806309DF80F30012BE3D02046084B98470C4B0B
S214080640DA6E1A6A9B690B4B98470028DBD00A4873
S2140806500A4B9847D7E700BF4D050800A9070800CA
S214080660B90508000107080010E000E00D040800BE
S21408067000000C4099010800D80D0800D90A0800A7
S214080680084B4FF4002119604FF480121A60196164
S2140806901A6119661A66044B044A5A6001221A60DF
S2140806A0704700BF000E0E4010E000E05034030014
S2140806B010B44022104BC3F80021104A40F20760DD
S2140806C010604FF4FF7103F540631960A3F5C93352
S2140806D0022119614FF480745C604FF080745C608E
S2140806E010614FF48030586040F6C4101862012339
S2140806F01363116310BC704700060E4000140E40CA
S2140807001D2804D946280FD901231A4601E00123DB
S214080710002283B152B14FF48062094B1A634FF43A
S2140807200072074B1A6370470023F2E74FF48062A3
S214080730034B5A63F3E74FF40072014B5A63704752
S21408074000140E40154AD2F8003143F01003C2F8E0
S2140807500031134B5A6842F400225A601A6F42F46A
S21408076000221A670F4BD3F8A02242F00702C3F8FC
S214080770A022D3F8AC2242F44D5242F00502C3F848
S214080780AC22D3F8A42242F43D5242F02D02C3F81C
S214080790A4225A6842F020025A60704700060E40AB
S2140807A000120E4000400940642805DC10F1640F72
S2140807B003DA6FF0630000E0642040F2891303FB5D
S2140807C000F0064B83FB0023C017C0EB631000F550
S2140807D03D502D30024BC3F8A80270471F85EB51D9
S2140807E000400940034B4FF080621A601A611A668F
S2140807F05A63704700100E4030B40E4C4FF000623B
S21408080022610D4B012018604FF4804159600B4D52
S214080810DD6110255D620A4D2A6004221A604FF0D9
S21408082080552561186459640649D9651A6430BC30
S214080830704700BF00060E400000084000BD0105D6
S21408084000E100E080DE800208B5C8B2014B984798
S21408085008BD00BF650B08002DE9F04107460E46A7
S214080860151E02DD0A46002104E04FF020080EE0BF
S2140808700131013210780028FAD1A94201DA6D1A3E
S21408088000E0002513F0020F06D14FF0200813F001
S21408089001040AD0002410E04FF03008F7E741467C
S2140808A038460D4B98470134013D002DF7DC04E02F
S2140808B03846094B98470134013631780029F7D174
S2140808C005E041463846044B98470134013D002D63
S2140808D0F7DC2046BDE8F08149080800F0B585B089
S2140808E007460C9851B11E460C4613B10A2A12D078
S2140808F0002604AD002305F8013D18E030238DF8E6
S214080900043000238DF805300B9B0A9A01A9384657
S2140809101B4CA04729E0002901DB0026E9E74C42EA
S2140809200126E6E7303305F8013DB4FBF2F44CB196
S214080930B4FBF2F302FB1343092BF3DDA0F13A01F3
S2140809400B44EFE756B10A9B1BB10B9B13F0020F43
S2140809500DD12D2305F8013C013D00260B9B0A9A74
S21408096029463846064CA047304405B0F0BD2D2130
S2140809703846044B98470A9B013B0A93EEE700BFAC
S2140809805908080049080800F0B589B006460C461C
S2140809900592002581E0A21C01238BE0013443F078
S2140809A002032278302AF9D0002206E002EB8202FF
S2140809B05000A1F13002024401342178A1F1300040
S2140809C0C0B20928F2D9732918D0642922D0782908
S2140809D02FD058293CD0752949D063295CD1059970
S2140809E0081D059009788DF81C1000218DF81D103B
S2140809F007A93046344FB84705444DE00599081D09
S214080A000590096821B130462F4FB847054443E0A2
S214080A102E49F8E70599081D059009686120029097
S214080A200193009201230A223046294FB84705440D
S214080A3032E00599081D0590096861200290019327
S214080A400092002310223046214FB847054423E081
S214080A500599081D059009684120029001930092A7
S214080A600023102230461A4FB847054414E005996B
S214080A70081D0590096861200290019300920023E2
S214080A800A223046124FB847054405E01446217836
S214080A903046104B984701350134237863B1252B2F
S214080AA0F5D1621C63783BB1252BEFD02D2B3FF494
S214080AB072AF0023144674E716B1336800221A7022
S214080AC0284609B0F0BD00BF59080800E80D080020
S214080AD0DD080800490808000FB400B583B004AA6A
S214080AE052F8041B01920020034B984703B05DF8A8
S214080AF004EB04B0704700BF89090800164B0022B3
S214080B001A705A70154B4FF44071596459601A6F31
S214080B10186F024022F440721A6759664FF48072C2
S214080B20A3F500631A6103F50073AC21196040F25F
S214080B30232119624FF40061596040F20221C3F87C
S214080B4020114FF0FF31D960E121996004490A600D
S214080B5050221A60704700BF74040020000E0E4032
S214080B6000E100E0074B5B6913F0020F08D0054B65
S214080B70D861044B5B6913F4007FFAD000207047F5
S214080B800120704700080E4008B5154B5B6913F046
S214080B90E00F03D04FF4A871114A116013F0010F4B
S214080BA012D010484278531C594203F03F0301F014
S214080BB03F0158BF4B4201788B4206D008498869E6
S214080BC008490A4490704B7008BD0748074B984779
S214080BD0044B5978024A92690B449A7008BD00BFC4
S214080BE000080E4074040020F00D0800D90A08001A
S214080BF070B50F4E0F4D761BB61018BF002405D0E3
S214080C00013455F8043B9847A642F9D10A4E0B4DD5
S214080C1000F000F9761BB61018BF002406D0013481
S214080C2055F8043B9847A642F9D170BD70BD00BF81
S214080C30200E0800200E0800280E0800200E0800C7
S214080C40024B13B1024800F005B8704700000000D8
S214080C50610C0800002301461A46184600F01EB824
S214080C6038B50A4C0A4D641BA4100AD004F1804318
S214080C70013B05EB8305013C55F804399847002CE1
S214080C80F9D1BDE8384000F0CFB800BF380E0800EC
S214080C90340E0800704700BF704700BF2DE9F843C0
S214080CA02C4D0646286898460F469146FFF7F2FFF1
S214080CB0294B1C68D4F84831002B3ED05A681F2AA6
S214080CC01CDC02F1010E76B1012103EB8204C4F8A4
S214080CD08890D3F8880191400843022EC3F888010B
S214080CE0C4F8088123D00232C3F804E0286843F821
S214080CF02270FFF7D1FF0020BDE8F883174B0BB32F
S214080D004FF4C870AFF300800346D8B10020D4F87B
S214080D1048114FF0010E586019600246C4F8483171
S214080D20C3F88801C3F88C01002EDCD0CCE7D3F8D2
S214080D308C010143C3F88C11D5E704F5A673C4F8F3
S214080D404831BBE72868FFF7A7FF4FF0FF30BDE83C
S214080D50F88300BF30040020100E080000000000D2
S214080D6043414E30206D657373616765206172720A
S214080D706976656420696E206E6F6E2D757365647E
S214080D80206D61696C626F780A0D000050726F679B
S214080D9072616D20696E697469616C697A65640A46
S214080DA00D00000052756E6E696E67207465737468
S214080DB02066756E630A0D005443305F6368302002
S214080DC048616E646C6572207361797320444F497C
S214080DD04E4B210A0D0000005349495555555555A7
S214080DE055550A0D00000000286E756C6C29000029
S214080DF04552523A20554152542052582062756640
S214080E006665722069732066756C6C0A0D000000B2
S214080E1008000020F8B500BFF8BC08BC9E4670471E
S214080E20410C080019010800F8B500BFF8BC08BC5A
S20C080E309E467047F500080015
S214080E3800093D000000000000000000F402002041
S214080E485C030020C4030020000000000000000027
S214080E58000000000000000000000000000000007D
S214080E68000000000000000000000000000000006D
S214080E78000000000000000000000000000000005D
S214080E88000000000000000000000000000000004D
S214080E98000000000000000000000000000000003D
S214080EA8000000000000000000000000000000002D
S214080EB8000000000000000000000000000000001D
S214080EC8000000000000000000000000000000000D
S214080ED800000000000000000000000000000000FD
S214080EE801000000000000000E33CDAB34126DE69A
S214080EF8ECDE05000B000000000000000000000003
S214080F0800000000000000000000000000000000CC
S214080F1800000000000000000000000000000000BC
S214080F2800000000000000000000000000000000AC
S214080F38000000000000000000000000000000009C
S208081268B804002099
S804080000F3
