:0200000280007C
:10000000E00800206504080061040800610408009D
:100010006104080061040800610408000000000099
:100020000000000000000000000000006104080063
:100030006104080000000000610408006104080079
:1000400061040800610408006104080061040800FC
:1000500061040800610408006104080061040800EC
:10006000790A08006104080000000000610408002B
:100070006104080061040800610408000000000039
:100080000000000061040800610408006104080029
:1000900061040800610408006104080061040800AC
:1000A0006104080000000000610408006104080009
:1000B000610408006104080061040800610408008C
:1000C000610408006104080061040800610408007C
:1000D000610408006104080061040800610408006C
:1000E0006104080061040800610408005503080069
:1000F0006104080010B5054C237833B9044B13B1E3
:100100000448AFF300800123237010BD34040020A5
:1001100000000000340D08000C4B43B10C4810B532
:100120000C49AFF300800C48036823B910BD0A489E
:10013000036833B97047094B002BF7D0BDE8104076
:100140001847064B002BF5D0184700BF00000000F1
:10015000340D080038040020340D080000000000B1
:10016000084AD2F8003143F02003C2F80031064BB0
:100170001A6942F080021A615A6842F080025A609D
:100180000020704700060E4000000C40014BD86E66
:10019000704700BF00000C4008B50C4B98470C4B53
:1001A0001860B0F5FA7F04D20A4B1B68B3F5FA7FEA
:1001B00003D2084B1860002008BD064B1860064AA1
:1001C000137801331370012008BD00BF8D010800B2
:1001D000580400205404002050040020F0B45718A4
:1001E000082FD4BF00230123082998BF082A5CD810
:1001F0000D46002B59D12E4A136823F001031360DA
:1002000013692C4B4FF440745C641C6F24F003049E
:100210001C6703245C605C66A3F50063264CC3F88E
:100220000C41D3F8004144F40064C3F8004150612C
:10023000002419E01E4801F110035B01C2180026DA
:10024000566000EB41124FF00056C2F808624FF0C2
:100250008076C650D2F81C3243F40003C2F81C3238
:1002600001238B401C430131B942E3DD00230DE043
:100270000F4901EB43124FF00050C2F8080203F19E
:10028000100252014FF0407088500133AB42EFDB57
:10029000074B5C604FF40061084A51601A6842F0F5
:1002A00001021A600020F0BC70470120FBE700BF8C
:1002B00000400B40000E0E402B10001000E100E04B
:1002C00008B502220121014B984708BDDD01080055
:1002D0004B0103F1402303F53023D3F8103213F41C
:1002E000000F33D070B44B0103F1402303F53023EA
:1002F000D3F81442D3F81822D3F80852C5F38A452C
:100300000580D3F81052C5F303458570002303E040
:10031000C618F270120A0133AB4205DA032BF7DC80
:10032000C618F470240AF6E7094B01F110025201D5
:100330004FF08070985003EB4111D1F81C3243F418
:100340000003C1F81C32002070BC704701207047C8
:1003500000400B4070B584B02D4B1E6916F0060F9F
:1003600048D016F0020F1CD116F0040F1ED0022147
:1003700001A8284B9847BDF80440E1B24D1E26481D
:100380006B002B449A00831884529DF806209A70C3
:100390002248234CA0479DF806102248A04700247D
:1003A00019E0012101A81B4B9847E4E71E481C4BAC
:1003B0009847E0E704AB234413F8092C05EB450309
:1003C0009900154B0B442344DA7052B2214617486A
:1003D000134B9847013405EB45039A000E4B134429
:1003E0009B789C42E6DB002300E001339DF8062069
:1003F0009342FADB16F0010F02D00122044B9A60FF
:100400004FF400620A4BC3F8842104B070BD00BFF2
:1004100000400B40D10208005C0400207C0C080066
:10042000C9090800880C0800500C0800980C080046
:1004300000E100E010B401EB41018C00044B2344C7
:100440001C6859689B6804604160836010BC7047F9
:100450005C0400200022014BDA7370475C0400202A
:10046000FEE7000008B5114B114A9A4209D00F4B24
:100470000F4A03E011681960043304320D498B42BE
:10048000F8D30D4B02E000221A6004330B4A93426A
:10049000F9D30B4B23F0604323F07F03094A9360A9
:1004A000094B9847094B9847FEE700BF0000002022
:1004B000340D08003404002034040020DC04002043
:1004C0000000080000ED00E0E10A0800E505080072
:1004D0004FF48063204A136002F5007213601F4BD3
:1004E0001B6A13F0807F07D11D4A1C4B1A621B4BFD
:1004F0009B6E13F0010FFAD01A4A184B1A62174B71
:100500009B6E13F4803FFAD0144A136B23F003035D
:1005100043F001031363114B9B6E13F0080FFAD0E5
:10052000114A0E4B9A620D4B9B6E13F0020FFAD0DC
:1005300011220A4B1A63094B9B6E13F0080FFAD075
:100540001222064B1A63054B9B6E13F0080FFAD06C
:10055000064A074B1A607047000A0E4000060E401C
:100560000908370009083701013F0D2000BD0105CA
:100570000000002008B50A4B98470A4B98470A4BE1
:1005800098470A480A4B98470A4B98470A4B98479E
:100590004FF40042094B5A6009480A4B984708BD7E
:1005A000D104080069060800ED090800650129006A
:1005B000C10208009906080061010800501A0E40A7
:1005C000A80C0800C909080008B50348034B984760
:1005D000034B984708BD00BFC00C0800C9090800BC
:1005E0005504080010B586B0164B98470020164BEE
:1005F000984705E0154B984714E00022144B9A6089
:10060000134B1B6813F4803FFAD0012103A8114C4F
:10061000A04700216846A0479DF903409DF80F3090
:10062000012BE7D02046084B98470B4BDA6E1A6A2D
:100630009B690A4B98470028DFD00948094B984727
:10064000DBE700BF75050800FD060800C9050800C6
:1006500010E000E03504080000000C40990108009B
:10066000D40C0800C9090800084B4FF40021196098
:100670004FF480121A6019611A6119661A66044BE8
:10068000044A5A6001221A60704700BF000E0E40F3
:1006900010E000E050340300154AD2F8003143F076
:1006A0001003C2F80031134B5A6842F400225A601A
:1006B0001A6F42F400221A670F4BD3F8A02242F0BF
:1006C0000702C3F8A022D3F8AC2242F44D5242F004
:1006D0000502C3F8AC22D3F8A42242F43D5242F002
:1006E0002D02C3F8A4225A6842F020025A607047D3
:1006F00000060E4000120E4000400940642805DC50
:1007000010F1640F03DA6FF0630000E0642040F240
:10071000891303FB00F0064B83FB0023C017C0EBDB
:10072000631000F53D502D30024BC3F8A80270470E
:100730001F85EB510040094008B5C8B2014B9847EE
:1007400008BD00BF550A08002DE9F04107460E46D6
:10075000151E02DD0A46002104E04FF020080EE0DD
:100760000131013210780028FAD1A94201DA6D1A5C
:1007700000E0002513F0020F06D14FF0200813F01F
:1007800001040AD0002410E04FF03008F7E741469A
:1007900038460D4B98470134013D002DF7DC04E04D
:1007A0003846094B98470134013631780029F7D192
:1007B00005E041463846044B98470134013D002D81
:1007C000F7DC2046BDE8F08139070800F0B585B0B8
:1007D00007460C9851B11E460C4613B10A2A12D096
:1007E000002604AD002305F8013D18E030238DF804
:1007F000043000238DF805300B9B0A9A01A9384676
:100800001B4CA04729E0002901DB0026E9E74C4208
:100810000126E6E7303305F8013DB4FBF2F44CB1B4
:10082000B4FBF2F302FB1343092BF3DDA0F13A0111
:100830000B44EFE756B10A9B1BB10B9B13F0020F61
:100840000DD12D2305F8013C013D00260B9B0A9A92
:1008500029463846064CA047304405B0F0BD2D214E
:100860003846044B98470A9B013B0A93EEE700BFCA
:100870004907080039070800F0B589B006460C465C
:100880000592002581E0A21C01238BE0013443F096
:1008900002032278302AF9D0002206E002EB82021D
:1008A0005000A1F13002024401342178A1F130005E
:1008B000C0B20928F2D9732918D0642922D0782926
:1008C0002FD058293CD0752949D063295CD105998E
:1008D000081D059009788DF81C1000218DF81D1059
:1008E00007A93046344FB84705444DE00599081D27
:1008F0000590096821B130462F4FB847054443E0C1
:100900002E49F8E70599081D0590096861200290B5
:100910000193009201230A223046294FB84705442B
:1009200032E00599081D0590096861200290019345
:100930000092002310223046214FB847054423E09F
:100940000599081D059009684120029001930092C5
:100950000023102230461A4FB847054414E0059989
:10096000081D059009686120029001930092002300
:100970000A223046124FB847054405E01446217854
:100980003046104B984701350134237863B1252B4D
:10099000F5D1621C63783BB1252BEFD02D2B3FF4B2
:1009A00072AF0023144674E716B1336800221A7040
:1009B000284609B0F0BD00BF49070800E40C080054
:1009C000CD070800390708000FB400B583B004AAAA
:1009D00052F8041B01920020034B984703B05DF8C6
:1009E00004EB04B0704700BF79080800164B0022E2
:1009F0001A705A70154B4FF44071596459601A6F50
:100A0000186F024022F440721A6759664FF48072E0
:100A1000A3F500631A6103F50073AC21196040F27D
:100A2000232119624FF40061596040F20221C3F89A
:100A300020114FF0FF31D960E121996004490A602B
:100A400050221A60704700BF74040020000E0E4050
:100A500000E100E0074B5B6913F0020F08D0054B83
:100A6000D861044B5B6913F4007FFAD00020704713
:100A70000120704700080E4008B5154B5B6913F064
:100A8000E00F03D04FF4A871114A116013F0010F69
:100A900012D010484278531C594203F03F0301F032
:100AA0003F0158BF4B4201788B4206D00849886904
:100AB00008490A4490704B7008BD0748074B984797
:100AC000044B5978024A92690B449A7008BD00BFE2
:100AD00000080E4074040020EC0C0800C90908004E
:100AE00070B50F4E0F4D761BB61018BF002405D001
:100AF000013455F8043B9847A642F9D10A4E0B4DF4
:100B000000F006F9761BB61018BF002406D0013499
:100B100055F8043B9847A642F9D170BD70BD00BF9F
:100B20001C0D08001C0D0800240D08001C0D0800F9
:100B3000024B13B1024800F005B8704700000000F6
:100B4000510B0800002301461A46184600F01EB853
:100B500038B50A4C0A4D641BA4100AD004F1804336
:100B6000013B05EB8305013C55F804399847002CFF
:100B7000F9D1BDE8384000F0D5B800BF340D080009
:100B8000300D0800704700BF704700BF2DE9F843E3
:100B90002C4D0646286898460F469146FFF7F2FF0F
:100BA000294B1C68D4F84831002B3ED05A681F2AC4
:100BB0001CDC02F1010E76B1012103EB8204C4F8C2
:100BC0008890D3F8880191400843022EC3F8880129
:100BD000C4F8088123D00232C3F804E0286843F83F
:100BE0002270FFF7D1FF0020BDE8F883174B0BB34D
:100BF0004FF4C870AFF300800346D8B10020D4F89A
:100C000048114FF0010E586019600246C4F848318F
:100C1000C3F88801C3F88C01002EDCD0CCE7D3F8F0
:100C20008C010143C3F88C11D5E704F5A673C4F811
:100C30004831BBE72868FFF7A7FF4FF0FF30BDE85A
:100C4000F88300BF300400200C0D080000000000F5
:100C500043414E30206D6573736167652061727228
:100C60006976656420696E206E6F6E2D757365649C
:100C7000206D61696C626F780A0D000049443A206A
:100C800025640A0D000000004C656E6774683A2008
:100C90002564200A0D000000646174612025643A17
:100CA0002025640A0D00000050726F6772616D208C
:100CB000696E697469616C697A65640A0D00000087
:100CC00052756E6E696E6720746573742066756EFA
:100CD000630A0D00534949555555555555550A0D4B
:100CE00000000000286E756C6C2900004552523AD5
:100CF0002055415254205258206275666665722014
:100D000069732066756C6C0A0D00000008000020F5
:100D1000F8B500BFF8BC08BC9E467047310B080010
:100D200019010800F8B500BFF8BC08BC9E46704722
:040D3000F5000800C2
:100D340000093D000000000000000000F402002053
:100D44005C030020C4030020000000000000000039
:100D5400000000000000000000000000000000008F
:100D6400000000000000000000000000000000007F
:100D7400000000000000000000000000000000006F
:100D8400000000000000000000000000000000005F
:100D9400000000000000000000000000000000004F
:100DA400000000000000000000000000000000003F
:100DB400000000000000000000000000000000002F
:100DC400000000000000000000000000000000001F
:100DD400000000000000000000000000000000000F
:100DE40001000000000000000E33CDAB34126DE6AC
:100DF400ECDE05000B000000000000000000000015
:100E040000000000000000000000000000000000DE
:100E140000000000000000000000000000000000CE
:100E240000000000000000000000000000000000BE
:100E340000000000000000000000000000000000AE
:04116400B8040020AB
:040000038000000079
:00000001FF
