:100000000C9438000C94B0010C94E8020C940E038C
:100010000C9455000C9455000C9455000C9455000C
:100020000C9455000C9455000C9455000C945500FC
:100030000C9455000C9455000C9455000C945500EC
:100040000C9455000C9455000C9455000C945500DC
:100050000C9455000C9455000C9455000C945500CC
:100060000C9455000C9455000C9455000C945500BC
:1000700011241FBECFEFD4E0DEBFCDBF12E0A0E061
:10008000B1E0E0E2FEE002C005900D92AE34B107AF
:10009000D9F722E0AEE4B2E001C01D92A935B20763
:1000A000E1F70E94E7010C940E070C94000081B365
:1000B000806281BB8EB580618EBD8EB588608EBD3D
:1000C0008FB582608FBD8FB581608FBD8FB58F7703
:1000D0008FBD8FB580648FBD8FB58F7D8FBD8FB580
:1000E0008F7E8FBD8EB58B7F8EBD8EB58D7F8EBD85
:1000F0008EB581608EBD8FB5877F8FBD8FB58B7FAD
:100100008FBD0895CF93DF9300D000D0CDB7DEB779
:1001100019821A821B821C821092001491E39A9514
:10012000F1F7000020E030E00CC0F901FC5E9081A6
:10013000E1E0F0E0EC0FFD1FE20FF31F90832F5F73
:100140003F4F2430310588F3E1E0F0E0EC0FFD1F74
:10015000E80FF11D80810F900F900F900F90DF91AD
:10016000CF91089583E00E94820080934F0282E045
:100170000E94820080934E020895CF9381B38B7FBB
:1001800081BBF8948BB780648BBF85B7826085BFD5
:1001900085B78E7F85BF78940E946A02C82F882316
:1001A00034F489E191E00E9454038C2F01C080E077
:1001B000CF910895EF92FF920F931F93CF93DF9308
:1001C000CDB7DEB72B970FB6F894DEBF0FBECDBF0D
:1001D000E982FA820B831C832D833E834F835887E9
:1001E00069877A878B8789819A81BC01687F77705C
:1001F000769567957695679576956795182F1295FC
:10020000110F107E81E30E942502612F82E30E947C
:1002100025020B81602F85E30E94250280E30E9466
:10022000130283FF0FC08FEF14C0E4E0F0E0EC0F87
:10023000FD1FE10FF11D608186E3810F0E94250201
:100240001F5F01C010E0101780F381E80E943B029D
:1002500080E02B960FB6F894DEBF0FBECDBFDF91C6
:10026000CF911F910F91FF90EF900895EF92FF9221
:100270000F931F93CF93DF937C0161112DC081E613
:100280000E941302C82F82E60E941302282F229593
:10029000269527708C2F90E0880F991F880F991F43
:1002A000880F991F822BF7019183808385E60E9436
:1002B0001302D82FDF70F701D283C0E00BC00C2FE0
:1002C00010E086E68C0F0E941302F701E00FF11F89
:1002D0008383CF5FCD1798F3C701DF91CF911F9133
:1002E0000F91FF90EF9008951F93CF93DF93CDB7B9
:1002F000DEB72B970FB6F894DEBF0FBECDBF182F19
:1003000080FF09C060E0CE0101960E9436018FE1B6
:1003100091E00E94540311FF09C061E0CE010196F3
:100320000E9436018AE291E00E94540312FF04C049
:1003300085E391E00E94540313FF04C080E491E040
:100340000E94540360E08CE20E9425022B960FB6B7
:10035000F894DEBF0FBECDBFDF91CF911F910895FE
:100360001F920F920FB60F9211242F933F934F932A
:100370005F936F937F938F939F93AF93BF93EF930D
:10038000FF930E94DA020E947401FF91EF91BF91E6
:10039000AF919F918F917F916F915F914F913F911D
:1003A0002F910F900FBE0F901F9018958FE190E046
:1003B0000E9421040E941A040E9457000E943603E2
:1003C0000E94B2000E94A8030E94BD000895CF932E
:1003D000DF93CDB7DEB72B970FB6F894DEBF0FBE15
:1003E000CDBF0E94D6018BE0EEE0F1E0DE01119678
:1003F00001900D928A95E1F7E980FA800B811C81CA
:100400002D813E814F81588569857A858B850E9433
:10041000DA002FEF8FEF9CE2215080409040E1F70F
:1004200000C000C0E9CFCF93C82F88B38F7E88BBB0
:1004300083E00E9412048C2F0E9412040E94150473
:1004400098B3906198BBCF910895CF93DF93D82F45
:10045000C62F88B38F7E88BB82E00E9412048D2F46
:100460000E9412048C2F0E94120488B3806188BB02
:10047000DF91CF91089598B39F7E98BB0E9412049C
:1004800088B3806188BB08951F93CF93DF93182FA3
:10049000D62FC42F88B38F7E88BB85E00E941204BC
:1004A000812F0E9412048D2F0E9412048C2F0E9413
:1004B000120488B3806188BBDF91CF911F910895AA
:1004C00088B38F7E88BB80EC0E94120488B3806161
:1004D00088BB0895CF93DF930E94FF030E946002C0
:1004E0008EE00E941302807E803831F08CE491E02F
:1004F0000E9454038FEF5BC067E08DE00E942502ED
:1005000040E660E680E60E94440280E60E94130214
:10051000803631F080E891E00E9454038EEF47C0AE
:1005200040E660E680E70E94440280E70E941302F2
:10053000C82FD0E0CE010E945403C036D10531F05F
:1005400085EA91E00E9454038DEF31C045E06FEFE2
:100550008BE20E9444028BE20E941302853031F04C
:100560008AEC91E00E9454038CEF21C043E063E0E9
:100570008AE20E9444028AE20E941302833031F030
:1005800088EE91E00E9454038BEF11C060E48FE08D
:100590000E9425028EE00E941302807E803431F09A
:1005A00089EF91E00E9454038AEF01C080E0DF915F
:1005B000CF91089588B38F7E88BB80EA0E94120491
:1005C0000E9415040E94150498B3906198BB089589
:1005D0001F920F920FB60F9211242F933F934F93B8
:1005E0005F936F937F938F939F93AF93BF93EF939B
:1005F000FF938CE192E00E945403FF91EF91BF9131
:10060000AF919F918F917F916F915F914F913F91AA
:100610002F910F900FBE0F901F9018951F920F9261
:100620000FB60F9211242F933F934F935F936F93C5
:100630007F938F939F93AF93BF93EF93FF9383E346
:1006400092E00E9454030E946103FF91EF91BF91D9
:10065000AF919F918F917F916F915F914F913F915A
:100660002F910F900FBE0F901F90189581B3877F29
:1006700081BB86B18E7F86B9F8948BB780688BBFBB
:1006800085B7886085BF85B7846085BF8BB78E7F4F
:100690008BBF86B78E7F86BF8AB780628ABF8BB7D3
:1006A00080628BBF7894089520E031E03093560249
:1006B000209355029F938F930E9430040F900F90C8
:1006C0000895CF93DF93CDB7DEB76C970FB6F8944C
:1006D000DEBF0FBECDBFE0915002F09151022091DC
:1006E000520230E0215031094CE1429FC001439F4A
:1006F000900D1124E80FF91F78968CE1DE01119618
:1007000001900D928A95E1F7E98DFA8D8B8D9C8D84
:1007100009956C960FB6F894DEBF0FBECDBFDF9182
:10072000CF9108958093001008958093001208954A
:10073000CF93DF93C0E0D0E004C080E00E94950337
:100740002196C11584E0D807C0F3DF91CF910895B9
:100750008EEA0E94920381EA0E9492038AED0E942F
:10076000920382E10E94920388EC0E94920388EA3D
:100770000E9492038FE30E94920385ED0E949203F0
:1007800080E80E94920381E80E9492038FEF0E940A
:10079000920389ED0E94920381E20E94920380E21B
:1007A0000E94920380E00E9492038BED0E949203CC
:1007B00080E30E9492038DEA0E94920380E00E94EF
:1007C000920384EA0E94920386EA0E9492038FEACF
:1007D0000E94920381E20E94920380E00E949203B1
:1007E0008FEF0E94920382E20E94920380E00E94B7
:1007F00092038FEF0E9492030E949803089587B39B
:10080000806187BB87B3806287BB87B3806887BB03
:1008100081E58DB988B3806188BB08958FB9779BD6
:10082000FECF08950E940E04089584EF0E940E04E6
:100830008FB1089585B7806885BF80B7806280BF1B
:10084000089590BD89B988E18AB98EE880BD089580
:100850005D9BFECF8CB908955F9BFECF8CB1089550
:10086000A0E0B0E0E6E3F4E00C94E706AE014B5FF5
:100870005F4FFA0161917191AF01809155029091A2
:1008800056020E944604E2E00C940307ABE0B0E09D
:10089000ECE4F4E00C94D7066C017B018A01FC01C6
:1008A00017821682838181FFCCC1CE0101963C0163
:1008B000F6019381F70193FD859193FF81917F016B
:1008C000882309F4BAC1853239F493FD859193FFE9
:1008D00081917F01853229F4B60190E00E943D06A6
:1008E000E7CF912C212C312CFFE1F315D8F08B327E
:1008F00079F038F4803279F08332A1F4232D20612D
:100900001DC08D3261F0803369F4232D216016C043
:10091000832D8260382EE32DE4603E2E2AC0F32D15
:10092000F8601DC037FC2DC020ED280F2A3040F0A4
:100930008E32B9F436FC81C1232D2064322E19C0C9
:1009400036FE06C08AE0989E200D1124922E11C01A
:10095000EAE02E9E200D1124222EF32DF0623F2E70
:1009600008C08C3621F4832D8068382E02C088366A
:1009700041F4F70193FD859193FF81917F018111EE
:10098000B3CF982F9F7D9554933028F40C5F1F4F61
:100990009FE399830DC0833631F0833771F083353F
:1009A00009F059C021C0F801808189830E5F1F4F73
:1009B00088248394912C530113C02801F2E04F0E38
:1009C000511CF801A080B18036FE03C0692D70E093
:1009D00002C06FEF7FEFC5010E9432064C01820119
:1009E000F32DFF773F2E16C0280122E0420E511C46
:1009F000F801A080B18036FE03C0692D70E002C00E
:100A00006FEF7FEFC5010E9427064C01F32DF068C0
:100A10003F2E820133FC1BC0822D90E08816990680
:100A2000B0F4B60180E290E00E943D062A94F4CF33
:100A3000F50137FC859137FE81915F01B60190E0A9
:100A40000E943D0621102A9421E0821A9108811407
:100A5000910471F7E8C0843611F0893641F5F80148
:100A600037FE07C060817181828193810C5F1F4FC7
:100A700008C060817181072E000C880B990B0E5FF6
:100A80001F4FF32DFF763F2E97FF09C0909580955D
:100A9000709561957F4F8F4F9F4FF0683F2E2AE0F2
:100AA00030E0A3010E947906882E861845C085375C
:100AB00031F4232D2F7EB22E2AE030E025C0932D75
:100AC000997FB92E8F36C1F018F4883579F0B5C00A
:100AD000803719F0883721F0B0C0E92FE061BE2ED1
:100AE000B4FE0DC0FB2DF460BF2E09C034FE0AC059
:100AF000292F2660B22E06C028E030E005C020E194
:100B000030E002C020E132E0F801B7FE07C06081AA
:100B10007181828193810C5F1F4F06C0608171815A
:100B200080E090E00E5F1F4FA3010E947906882E9F
:100B30008618FB2DFF773F2E36FE0DC0232D2E7F0E
:100B4000A22E891458F434FE0BC032FC09C0832D48
:100B50008E7EA82E05C0B82CA32C03C0B82C01C0D3
:100B6000B92CA4FE0FC0FE01E80DF11D8081803379
:100B700021F49A2D997EA92E09C0A2FE06C0B39435
:100B8000B39404C08A2D867809F0B394A3FC11C0F5
:100B9000A0FE06C0B21488F4280C922C9B180EC03C
:100BA000B21460F4B60180E290E00E943D06B39476
:100BB000F7CFB21418F42B1802C0982C212CA4FEE5
:100BC00010C0B60180E390E00E943D06A2FE17C06F
:100BD000A1FC03C088E790E002C088E590E0B60180
:100BE0000CC08A2D867859F0A1FE02C08BE201C0AC
:100BF00080E2A7FC8DE2B60190E00E943D068914D8
:100C000038F4B60180E390E00E943D069A94F7CF55
:100C10008A94F301E80DF11D8081B60190E00E94F5
:100C20003D068110F5CF222009F442CEB60180E2C4
:100C300090E00E943D062A94F6CFF60186819781C6
:100C400002C08FEF9FEF2B96E2E10C94F306FC01BC
:100C50000590615070400110D8F7809590958E0FE7
:100C60009F1F0895FC016150704001900110D8F75A
:100C7000809590958E0F9F1F08950F931F93CF938C
:100C8000DF93FB01238121FD03C08FEF9FEF2CC079
:100C900022FF16C0468157812481358142175307B0
:100CA00044F4A081B1819D012F5F3F4F31832083A8
:100CB0008C93268137812F5F3F4F3783268314C063
:100CC0008B01EC01FB010084F185E02D0995892B56
:100CD000E1F6D80116968D919C911797019617967B
:100CE0009C938E931697CE01DF91CF911F910F9118
:100CF0000895FA01AA27283051F1203181F1E894B2
:100D00006F936E7F6E5F7F4F8F4F9F4FAF4FB1E0FE
:100D10003ED0B4E03CD0670F781F891F9A1FA11DF9
:100D2000680F791F8A1F911DA11D6A0F711D811DFA
:100D3000911DA11D20D009F468943F912AE0269FBF
:100D400011243019305D3193DEF6CF010895462F1E
:100D50004770405D4193B3E00FD0C9F7F6CF462FFF
:100D60004F70405D4A3318F0495D31FD4052419368
:100D700002D0A9F7EACFB4E0A69597958795779525
:100D80006795BA95C9F700976105710508959B01AC
:100D9000AC010A2E06945795479537952795BA9535
:100DA000C9F7620F731F841F951FA01D08952F920E
:100DB0003F924F925F926F927F928F929F92AF92EB
:100DC000BF92CF92DF92EF92FF920F931F93CF9338
:100DD000DF93CDB7DEB7CA1BDB0B0FB6F894DEBFCF
:100DE0000FBECDBF09942A88398848885F846E84F5
:100DF0007D848C849B84AA84B984C884DF80EE803F
:100E0000FD800C811B81AA81B981CE0FD11D0FB647
:100E1000F894DEBF0FBECDBFED010895F894FFCF6B
:100E2000000000030000000028042C04000032032E
:100E3000084D656C64696E67216572726F7200524D
:100E400058302046756C6C0D0A005258312046759A
:100E50006C6C0D0A0054583020427573790D0A00ED
:100E600054583020456D7074790D0A004D4350324E
:100E7000353135206973204E4F5420696E20636FE1
:100E80006E66696775726174696F6E206D6F6465F7
:100E9000206166746572207265736574210D0A00A5
:100EA0005265636569766520627566666572203095
:100EB00020636F6E66696720696E636F7272656327
:100EC00074210D0A00526563656976652062756656
:100ED000666572203120636F6E66696720696E6394
:100EE0006F7272656374210D0A00496E74657272C7
:100EF00075707420636F6E66696720696E636F72C8
:100F000072656374210D0A002042525020696E639D
:100F10006F7272656374210A00204D43503235317F
:100F200035206973204E4F5420696E206C6F6F70AE
:100F30006261636B206D6F6465210A0052696768A6
:100F40007420627574746F6E20707265737365645B
:100F50000D0A004A6F79737469636B20627574744B
:0E0F60006F6E20707265737365640D0A000079
:00000001FF
