S01C000074746B5F343135355F6279676765726E5F6C61622E73726563AC
S11300000C9426010C9445020C946B020C949102FE
S11300100C9443010C9443010C9443010C9443014C
S11300200C9443010C9443010C9443010C9443013C
S11300300C9443010C9443010C9443010C9443012C
S11300400C9443010C9443010C9443010C9443011C
S11300500C9443010C9443010C9443010C9443010C
S11300600C9443010C9443010C9443010C944301FC
S1130070000000000000005F0000000700070014FB
S11300807F147F14242A7F2A1223130864623649BA
S11300905522500005030000001C224100004122AB
S11300A01C00082A1C2A0808083E080800503000D2
S11300B00008080808080060600000201008040216
S11300C03E5149453E00427F40004261514946212C
S11300D041454B311814127F1027454545393C4A98
S11300E049493001710905033649494936064949E8
S11300F0291E00363600000056360000000814227F
S11301004114141414144122140800020151090664
S1130110324979413E7E1111117E7F494949363E6B
S1130120414141227F4141221C7F494949417F0984
S11301300901013E414151327F0808087F00417F97
S113014041002040413F017F081422417F4040404C
S1130150407F0204027F7F0408107F3E4141413EFC
S11301607F090909063E4151215E7F091929464646
S11301704949493101017F01013F4040403F1F206F
S113018040201F7F2018207F631408146303047821
S11301900403615149454300007F414102040810B2
S11301A02041417F000004020102044040404040DD
S11301B0000102040020545454787F4844443838E1
S11301C044444420384444487F3854545418087EE6
S11301D0090102081454543C7F0804047800447D47
S11301E040002040443D00007F10284400417F40EF
S11301F0007C041804787C080404783844444438A7
S11302007C14141408081414187C7C08040408488A
S113021054545420043F4440203C4040207C1C2043
S113022040201C3C4030403C44281028440C505092
S1130230503C4464544C44000836410000007F00A4
S113024000004136080002010302010011241FBE10
S1130250CFEFD4E0DEBFCDBF14E0A0E0B1E0EAE927
S1130260FFE002C005900D92AA32B107D9F724E04D
S1130270AAE2B4E001C01D92A733B207E1F70E94DD
S113028040020C94CB070C94000081B3806281BBC4
S11302908EB580618EBD8EB588608EBD8FB582604F
S11302A08FBD8FB581608FBD8FB58F778FBD8FB5B3
S11302B080648FBD8FB58F7D8FBD8FB58F7E8FBDD1
S11302C08EB58B7F8EBD8EB58D7F8EBD8EB58160D4
S11302D08EBD8FB5877F8FBD8FB58B7F8FBD089502
S11302E0CF93DF9300D000D0CDB7DEB719821A8246
S11302F01B821C821092001491E39A95F1F700007E
S113030020E030E00CC0F901FC5E9081E1E0F0E017
S1130310EC0FFD1FE20FF31F90832F5F3F4F24303C
S1130320310588F3E1E0F0E0EC0FFD1FE80FF11D6B
S113033080810F900F900F900F90DF91CF910895CF
S113034083E00E94700180932B0482E00E9470017C
S113035080932A041F928F9380912B041F928F9372
S113036086EB93E09F938F930E94ED040F900F9080
S11303700F900F900F900F9008958617A0F0462FBE
S113038050E0282F30E0241B350B64E6629FC00147
S1130390639F900D11246FEF70E0641B750B0E9436
S11303A0C504862F089570E0282F30E0261B370BF4
S11303B044E6429FC001439F900D11240E94C5044E
S11303C0862F0895CF93DF93C0912B0483E00E947E
S11303D070016C2F0E94BD01C82FD0912A0482E0C5
S11303E00E9470016D2F0E94BD01982F8C2FDF9108
S11303F0CF910895282F8A5B8D3848F4892F9A5B12
S11304009D38D8F08734DCF48634DCF015C027340A
S11304104CF0892F9A5B9D38B0F08734B4F486345D
S1130420B4F00AC0263444F4892F9A5B9D3888F0CE
S113043087348CF486348CF0089584E0089582E047
S1130440089583E0089581E0089585E0089587E0A4
S1130450089580E0089586E0089588E008958FE186
S113046090E00E94B6040E94AF040E9445010E94DD
S1130470B9020E94A0010E943C040E94F403089562
S11304800E942F020E94A903FDCF1F920F920FB664
S11304900F9211242F933F934F935F936F937F9306
S11304A08F939F93AF93BF93EF93FF9383ED93E069
S11304B00E94F002FF91EF91BF91AF919F918F91B4
S11304C07F916F915F914F913F912F910F900FBE4C
S11304D00F901F9018951F920F920FB60F92112430
S11304E02F933F934F935F936F937F938F939F9338
S11304F0AF93BF93EF93FF9389EE93E00E94F002D2
S1130500FF91EF91BF91AF919F918F917F916F91E7
S11305105F914F913F912F910F900FBE0F901F90BD
S113052018951F920F920FB60F9211242F933F9399
S11305304F935F936F937F938F939F93AF93BF93E7
S1130540EF93FF9380E094E00E94F0020E94C303C3
S1130550FF91EF91BF91AF919F918F917F916F9197
S11305605F914F913F912F910F900FBE0F901F906D
S1130570189581B38B7F81BB81B3877F81BB86B1A3
S11305808E7F86B9F8948BB780648BBF8BB78068F5
S11305908BBF85B7886085BF85B7846085BF85B705
S11305A0826085BF85B7816085BF8BB78E7F8BBF27
S11305B086B78E7F86BF8AB780628ABF8BB7806218
S11305C08BBF789408952EE031E030933404209367
S11305D033049F938F930E94ED040F900F9008951E
S11305E020E031E030933404209333049F938F93BD
S11305F00E94ED040F900F9008958AE194E00E9408
S1130600F002089581E294E00E94F002089588E1E6
S11306100E94290488E10E9429048EE70E9429048B
S11306208CE30E94290488E10E94290408951F9301
S1130630CF93DF93C0912D04D0912E040E942C04FB
S113064080E00E940F0488E20E941304CE010E94FD
S1130650E30210E013C04CE1489FE001499FD00D34
S113066011246896C20FD31F1F5F812F0E940F04AD
S113067088E00E941304CE010E94E302812F90E0DF
S113068020912D0430912E04F901E452FF4F408152
S1130690518184179507FCF260E081E00E942004F8
S11306A00E94070381E080932F04DF91CF911F9173
S11306B0089590932E0480932D04FC01E452FF4F7F
S11306C08081809330040E9417030895CF93C0E083
S11306D004C080E00E942904CF5FC530D0F3CF91DD
S11306E0089580912F048230B8F0909130049817C7
S11306F098F00E940F0480E00E9413040E94660395
S113070080912F04815080932F040E940F0480E075
S11307100E9413040E940703089580912F048823E4
S1130720B9F090913004891798F40E940F0480E086
S11307300E9413040E94660380912F048F5F8093AC
S11307402F040E940F0480E00E9413040E940703F8
S11307500895CF930E94E2010E94FA01C82F8330CA
S113076039F480912C04C81719F00E948D0307C036
S1130770C23029F480912C04C8130E947103C093E1
S11307802C04CF910895CF93DF93CDB7DEB76C9748
S11307900FB6F894DEBF0FBECDBFE0912D04F091EB
S11307A02E0420912F0430E0215031094CE1429F66
S11307B0C001439F900D1124E80FF91F78968CE136
S11307C0DE01119601900D928A95E1F7E98DFA8D7B
S11307D08B8D9C8D09956C960FB6F894DEBF0FBE79
S11307E0CDBFDF91CF910895ECE1F1E08AEF91E084
S11307F093AB82AB88ED92E090936B0180936A0196
S1130800F0934902E0934802F0932703E093260310
S1130810CF010E94590308958093001008958055D4
S11308200E940C040895CF93C82FC295CF708F7087
S11308300E940C048C2F80610E940C04CF910895B7
S1130840CF93C62F0E940F048C2F0E941304CF91C4
S11308500895809300120895CF93DF93C0E0D0E011
S113086004C080E00E9429042196C11584E0D807C1
S1130870C0F3DF91CF9108958EEA0E940C0481EABF
S11308800E940C048AED0E940C0482E10E940C0474
S113089088EC0E940C0488EA0E940C048FE30E94F6
S11308A00C0485ED0E940C0480E80E940C0481E88D
S11308B00E940C048FEF0E940C0489ED0E940C042A
S11308C081E20E940C0480E20E940C0480E00E94F9
S11308D00C048BED0E940C0480E30E940C048DEA4E
S11308E00E940C0480E00E940C0484EA0E940C0420
S11308F086EA0E940C048FEA0E940C0481E20E94A2
S11309000C0480E00E940C048FEF0E940C0482E22D
S11309100E940C0480E00E940C048FEF0E940C04DF
S11309200E942C040895CF93DF93D0EED80FC0E03B
S113093011C08D2F90E0FC01EE0FFF1FEE0FFF1F83
S1130940E80FF91FEC0FF11DE059FF4F84910E944D
S11309502904CF5FC53068F3DF91CF91089585B73F
S1130960806885BF80B7806280BF089590BD89B9D3
S113097088E18AB98EE880BD08955D9BFECF8CB96D
S113098008955F9BFECF8CB1089597FB072E16F454
S1130990009407D077FD09D00E94D90407FC05D044
S11309A03EF4909581959F4F0895709561957F4F82
S11309B00895AA1BBB1B51E107C0AA1FBB1FA617A2
S11309C0B70710F0A61BB70B881F991F5A95A9F7F4
S11309D080959095BC01CD010895A0E0B0E0E3EFCF
S11309E0F4E00C94A407AE014B5F5F4FFA016191F0
S11309F07191AF0180913304909134040E940305F6
S1130A00E2E00C94C007ABE0B0E0E9E0F5E00C9460
S1130A1094076C017B018A01FC0117821682838191
S1130A2081FFCCC1CE0101963C01F6019381F7010F
S1130A3093FD859193FF81917F01882309F4BAC1C5
S1130A40853239F493FD859193FF81917F0185323D
S1130A5029F4B60190E00E94FA06E7CF912C212CEC
S1130A60312CFFE1F315D8F08B3279F038F4803271
S1130A7079F08332A1F4232D20611DC08D3261F001
S1130A80803369F4232D216016C0832D8260382EB3
S1130A90E32DE4603E2E2AC0F32DF8601DC037FC20
S1130AA02DC020ED280F2A3040F08E32B9F436FCE8
S1130AB081C1232D2064322E19C036FE06C08AE07F
S1130AC0989E200D1124922E11C0EAE02E9E200D36
S1130AD01124222EF32DF0623F2E08C08C3621F40F
S1130AE0832D8068382E02C0883641F4F70193FDC7
S1130AF0859193FF81917F018111B3CF982F9F7DC1
S1130B009554933028F40C5F1F4F9FE399830DC0D5
S1130B10833631F0833771F0833509F059C021C031
S1130B20F801808189830E5F1F4F88248394912C60
S1130B30530113C02801F2E04F0E511CF801A080AC
S1130B40B18036FE03C0692D70E002C06FEF7FEF05
S1130B50C5010E94EF064C018201F32DFF773F2E61
S1130B6016C0280122E0420E511CF801A080B18079
S1130B7036FE03C0692D70E002C06FEF7FEFC50140
S1130B800E94E4064C01F32DF0683F2E820133FCF1
S1130B901BC0822D90E088169906B0F4B60180E25D
S1130BA090E00E94FA062A94F4CFF50137FC85916F
S1130BB037FE81915F01B60190E00E94FA06211090
S1130BC02A9421E0821A91088114910471F7E8C0F3
S1130BD0843611F0893641F5F80137FE07C060818B
S1130BE07181828193810C5F1F4F08C06081718184
S1130BF0072E000C880B990B0E5F1F4FF32DFF7609
S1130C003F2E97FF09C090958095709561957F4F11
S1130C108F4F9F4FF0683F2E2AE030E0A3010E94DF
S1130C203607882E861845C0853731F4232D2F7E4C
S1130C30B22E2AE030E025C0932D997FB92E8F364D
S1130C40C1F018F4883579F0B5C0803719F08837C9
S1130C5021F0B0C0E92FE061BE2EB4FE0DC0FB2D23
S1130C60F460BF2E09C034FE0AC0292F2660B22EBC
S1130C7006C028E030E005C020E130E002C020E1F9
S1130C8032E0F801B7FE07C06081718182819381EF
S1130C900C5F1F4F06C06081718180E090E00E5FA1
S1130CA01F4FA3010E943607882E8618FB2DFF775D
S1130CB03F2E36FE0DC0232D2E7FA22E891458F40C
S1130CC034FE0BC032FC09C0832D8E7EA82E05C0D5
S1130CD0B82CA32C03C0B82C01C0B92CA4FE0FC09F
S1130CE0FE01E80DF11D8081803321F49A2D997E57
S1130CF0A92E09C0A2FE06C0B394B39404C08A2DE1
S1130D00867809F0B394A3FC11C0A0FE06C0B21407
S1130D1088F4280C922C9B180EC0B21460F4B6010F
S1130D2080E290E00E94FA06B394F7CFB21418F46C
S1130D302B1802C0982C212CA4FE10C0B60180E30D
S1130D4090E00E94FA06A2FE17C0A1FC03C088E747
S1130D5090E002C088E590E0B6010CC08A2D867848
S1130D6059F0A1FE02C08BE201C080E2A7FC8DE233
S1130D70B60190E00E94FA06891438F4B60180E3C3
S1130D8090E00E94FA069A94F7CF8A94F301E80D52
S1130D90F11D8081B60190E00E94FA068110F5CF22
S1130DA0222009F442CEB60180E290E00E94FA06C5
S1130DB02A94F6CFF6018681978102C08FEF9FEFC8
S1130DC02B96E2E10C94B007FC0105906150704051
S1130DD00110D8F7809590958E0F9F1F0895FC0100
S1130DE06150704001900110D8F7809590958E0F56
S1130DF09F1F08950F931F93CF93DF93FB012381CC
S1130E0021FD03C08FEF9FEF2CC022FF16C0468147
S1130E105781248135814217530744F4A081B1815D
S1130E209D012F5F3F4F318320838C93268137812F
S1130E302F5F3F4F3783268314C08B01EC01FB01E6
S1130E400084F185E02D0995892BE1F6D8011696E9
S1130E508D919C911797019617969C938E93169754
S1130E60CE01DF91CF911F910F910895FA01AA2726
S1130E70283051F1203181F1E8946F936E7F6E5FD9
S1130E807F4F8F4F9F4FAF4FB1E03ED0B4E03CD087
S1130E90670F781F891F9A1FA11D680F791F8A1F6A
S1130EA0911DA11D6A0F711D811D911DA11D20D0D1
S1130EB009F468943F912AE0269F11243019305D8B
S1130EC03193DEF6CF010895462F4770405D41937C
S1130ED0B3E00FD0C9F7F6CF462F4F70405D4A33C9
S1130EE018F0495D31FD4052419302D0A9F7EACF91
S1130EF0B4E0A6959795879577956795BA95C9F7C0
S1130F0000976105710508959B01AC010A2E0694B2
S1130F105795479537952795BA95C9F7620F731F6B
S1130F20841F951FA01D08952F923F924F925F92A8
S1130F306F927F928F929F92AF92BF92CF92DF92E5
S1130F40EF92FF920F931F93CF93DF93CDB7DEB74A
S1130F50CA1BDB0B0FB6F894DEBF0FBECDBF0994DE
S1130F602A88398848885F846E847D848C849B8435
S1130F70AA84B984C884DF80EE80FD800C811B8143
S1130F80AA81B981CE0FD11D0FB6F894DEBF0FBE72
S10D0F90CDBFED010895F894FFCFE2
S1130F9A0000000300000000BD04C10400000000BA
S1130FAA0002000000009304000000004D61696E15
S1130FBA204D656E7500000000000000000000006E
S1130FCA00000000537562204D656E7520310000E3
S1130FDA00000000000000000000000059030000A7
S1130FEA537562204D656E752032000000000000C2
S1130FFA0000000000000000590300000000000087
S113100A00000000000000000000000000000000D2
S113101A00000000000000000000000000000000C2
S113102A00000000000000000000000000000000B2
S113103A00000000000000000000000000000000A2
S113104A0000000000000000000000000000000092
S113105A0000000000000000000000000000000082
S113106A0000000000000000000000000000000072
S113107A0000000000000000000000000000000062
S113108A00000000000000000200537562204D6554
S113109A6E7520310000000000000000000000000E
S11310AA0000416374696F6E203100000000000083
S11310BA00000000000000000000FD020000426180
S11310CA636B000000000000000000000000000044
S11310DA00000000000059030000000000000000A6
S11310EA00000000000000000000000000000000F2
S11310FA00000000000000000000000000000000E2
S113110A00000000000000000000000000000000D1
S113111A00000000000000000000000000000000C1
S113112A00000000000000000000000000000000B1
S113113A00000000000000000000000000000000A1
S113114A0000000000000000000000000000000091
S113115A0000000000000000000000000000000081
S113116A0000000000000200537562204D656E7590
S113117A203200000000000000000000000000000F
S113118A416374696F6E20310000000000000000A2
S113119A0000000000000000020300004261636BCB
S11311AA0000000000000000000000000000000031
S11311BA00000000590300000000000000000000C5
S11311CA0000000000000000000000000000000011
S11311DA0000000000000000000000000000000001
S11311EA00000000000000000000000000000000F1
S11311FA00000000000000000000000000000000E1
S113120A00000000000000000000000000000000D0
S113121A00000000000000000000000000000000C0
S113122A00000000000000000000000000000000B0
S113123A00000000000000000000000000000000A0
S113124A0000000002006F66667365745F783A20D6
S113125A25642C206F66667365745F793A20256469
S113126A0D0A004C65667420627574746F6E207082
S113127A7265737365640D0A005269676874206243
S113128A7574746F6E20707265737365640D0A00E9
S113129A4A6F79737469636B20627574746F6E2014
S11312AA707265737365640D0A00686569200D0AB6
S10D12BA0068616C6C6F200D0A00DF
S9030000FC
